:100000000C942A000C9447000C9447000C94470071
:100010000C9447000C9447000C9447000C945E0726
:100020000C9447000C9447000C9447000C94470034
:100030000C9447000C9447000C9447000C94470024
:100040000C9447000C9447000C9447000C94470014
:100050000C94470011241FBECFE5D8E0DEBFCDBF12
:1000600010E0A0E6B0E0E8E2FFE202C005900D92E9
:10007000A238B107D9F711E0A2E8B0E001C01D92A3
:10008000AC30B107E1F70E94E3150C9492170C9481
:100090000000DF93CF93CDB7DEB727970FB6F89464
:1000A000DEBF0FBECDBF9D838C836E834F838AE1FD
:1000B00090E00E9421039A83898389819A81009725
:1000C00009F46FC08091820090918300009741F401
:1000D00089819A8190938300809382000E94B0026C
:1000E0008E81823010F081E08E83E981FA81118E59
:1000F000108EE981FA818E81868BE981FA818F8168
:10010000878BE981FA818C819D81918380838981AC
:100110009A8102960E947E0389819A810C960E94A0
:100120007E03E981FA8189819A8191878087E981BB
:10013000FA8189819A81938B828B8E81282F30E07E
:1001400082E090E0821B930BE981FA819587848796
:10015000E981FA81968980918400891728F4E981E0
:10016000FA81868980938400E981FA818689282F23
:1001700030E0C901880F991F880F991F880F991FB8
:10018000820F931FAC0145575F4F89819A819C0173
:100190002E5F3F4FCA01B9010E948E0381E08B831D
:1001A00002C08FEF8B838B8127960FB6F894DEBF4A
:1001B0000FBECDBFCF91DF910895DF93CF9300D0D5
:1001C00000D000D0CDB7DEB79C838B837E836D8358
:1001D00020918500309186008B819C81820F931F36
:1001E0009A838983809182009091830002960E9475
:1001F0004604E0918200F091830089819A81938383
:100200008283209185003091860089819A818217AE
:10021000930770F48091B1009091B2002091820018
:10022000309183002E5F3F4FB9010E94DA030DC069
:100230008091AF009091B0002091820030918300B6
:100240002E5F3F4FB9010E94DA038D819E81009796
:1002500061F080918200909183009C01245F3F4F68
:100260008D819E81B9010E94DA0326960FB6F8941B
:10027000DEBF0FBECDBFCF91DF910895DF93CF9347
:1002800000D0CDB7DEB73AC0F894E091B800F09155
:10029000B900868197819A83898389819A810C9696
:1002A0000E944604789489819A8102960E944604AD
:1002B000E981FA81968980918400891728F4E9817F
:1002C000FA81868980938400E981FA818689282FC2
:1002D00030E0C901880F991F880F991F880F991F57
:1002E000820F931FAC0145575F4F89819A819C0112
:1002F0002E5F3F4FCA01B9010E948E038091B30067
:10030000882309F0C1CF0F900F90CF91DF9108950E
:10031000DF93CF9300D000D0CDB7DEB70E94B40EEC
:100320002091870030918800821B930B90938A0064
:100330008093890085C08091850090918600019608
:1003400090938600809385008091890090918A0027
:10035000019790938A008093890080918500909105
:100360008600009709F064C08091AF009091B000C2
:100370009A8389838091B1009091B2009093B000EC
:100380008093AF0089819A819093B2008093B100ED
:100390004FC0E091AF00F091B0000580F681E02DF4
:1003A000868197819C838B83EB81FC8122813381C1
:1003B00080918500909186008217930708F440C0D1
:1003C000F8948B819C8102960E944604EB81FC810B
:1003D00084899589009729F08B819C810C960E94D5
:1003E00046047894EB81FC8196898091840089177A
:1003F00028F4EB81FC81868980938400EB81FC8169
:100400008689282F30E0C901880F991F880F991F0E
:10041000880F991F820F931FAC0145575F4F8B8147
:100420009C819C012E5F3F4FCA01B9010E948E033F
:10043000E091AF00F091B0008081882309F0A9CF4E
:100440008091890090918A00009709F074CF809183
:1004500085009091860090938800809387000F908C
:100460000F900F900F90CF91DF910895DF93CF936E
:1004700000D0CDB7DEB70E943E010E9488010AC0BD
:1004800080918400882309F466C0809184008150A3
:100490008093840080918400282F30E0C901880F68
:1004A000991F880F991F880F991F820F931FFC01B6
:1004B000E557FF4F8081882319F380918400282F0E
:1004C00030E0C901880F991F880F991F880F991F65
:1004D000820F931F85579F4F9A838983E981FA8101
:1004E0000180F281E02D82819381E981FA819283FA
:1004F0008183E981FA812181328189819A81039600
:100500002817390759F4E981FA810180F281E02D39
:1005100082819381E981FA8192838183E981FA81E1
:100520000180F281E02D86819781909383008093F2
:100530008200E0918200F09183004081518180919E
:10054000820090918300E0918200F09183002789DE
:10055000622FFA0109950F900F90CF91DF910895C6
:10056000DF93CF930F92CDB7DEB7198213C0898185
:10057000282F30E0C901880F991F880F991F880F15
:10058000991F820F931F85579F4F0E9454038981A3
:100590008F5F89838981823050F38DE990E00E94DA
:1005A000540386EA90E00E94540383EB90E00E949B
:1005B00054038DE990E09093B0008093AF0086EAF9
:1005C00090E09093B2008093B1000F90CF91DF91B3
:1005D0000895DF93CF9300D000D00F92CDB7DEB750
:1005E0009D838C83EC81FD810580F681E02D8681E1
:1005F00097819B838A838A819B810C960E94460403
:100600008A819B819C01245F3F4F83EB90E0B9017D
:100610000E948E03EA81FB819689E0918200F0912D
:1006200083008689981718F081E0898301C01982B8
:1006300089810F900F900F900F900F90CF91DF91C5
:100640000895DF93CF9300D000D0CDB7DEB79C8361
:100650008B830E941E0E8B819C810E946E169A8352
:1006600089830E942A0E89819A810F900F900F90A2
:100670000F90CF91DF910895DF93CF9300D0CDB746
:10068000DEB79A83898389819A81009741F00E941D
:100690001E0E89819A810E941B170E942A0E0F90BC
:1006A0000F90CF91DF910895DF93CF9300D0CDB716
:1006B000DEB79A83898389819A810396E981FA81D9
:1006C00092838183E981FA818FEF9FEF9483838303
:1006D00089819A810396E981FA819683858389814C
:1006E0009A810396E981FA8190878783E981FA816B
:1006F00010820F900F90CF91DF910895DF93CF93E9
:1007000000D0CDB7DEB79A838983E981FA8111865B
:1007100010860F900F90CF91DF910895DF93CF93C4
:1007200000D000D000D0CDB7DEB79C838B837E8312
:100730006D83EB81FC81818192819A838983E98138
:10074000FA8182819381ED81FE8193838283EB81A3
:10075000FC8181819281ED81FE8195838483E98191
:10076000FA810280F381E02D8D819E8195838483BF
:100770008D819E81E981FA81938382838D819E811F
:10078000EB81FC8192838183ED81FE818B819C8151
:1007900091878087EB81FC8180818F5FEB81FC8179
:1007A000808326960FB6F894DEBF0FBECDBFCF91E3
:1007B000DF910895DF93CF93CDB7DEB728970FB6BB
:1007C000F894DEBF0FBECDBF9E838D8378876F8385
:1007D000EF81F885808191819A83898389819A81CB
:1007E0002FEF8F3F920739F4ED81FE81878190854D
:1007F0009C838B8318C08D819E8103969C838B8301
:1008000006C0EB81FC81828193819C838B83EB8189
:10081000FC810280F381E02D2081318189819A81E0
:100820008217930770F7EB81FC8182819381EF81BE
:10083000F88593838283EF81F8850280F381E02D30
:100840008F81988595838483EF81F8858B819C8146
:10085000958384838F819885EB81FC819383828348
:10086000EF81F8858D819E8191878087ED81FE8162
:1008700080818F5FED81FE81808328960FB6F8948A
:10088000DEBF0FBECDBFCF91DF910895DF93CF9331
:1008900000D000D0CDB7DEB79C838B83EB81FC8189
:1008A000A281B381EB81FC818481958115969C9313
:1008B0008E931497EB81FC81A481B581EB81FC813F
:1008C0008281938113969C938E931297EB81FC8186
:1008D000808591859A838983E981FA81218132819A
:1008E0008B819C812817390741F4EB81FC8184813D
:1008F0009581E981FA8192838183EB81FC81118664
:100900001086E981FA8180818150E981FA818083B2
:100910000F900F900F900F90CF91DF910895DF937C
:10092000CF93CDB7DEB728970FB6F894DEBF0FBED2
:10093000CDBF9C838B837E836D8358874F83EB81F0
:10094000FC8181E180838B819C8101979C838B83D7
:10095000EB81FC8182E280838B819C8101979C8367
:100960008B83EB81FC8183E380838B819C81019766
:100970009C838B838D819E819A8389838981EB817E
:10098000FC8180838B819C8101979C838B838981EF
:100990009A81892F99279A8389838981EB81FC81A8
:1009A00080838B819C8101979C838B83EB81FC816D
:1009B00010828B819C8101979C838B83EB81FC81CE
:1009C00080E880838B819C8101979C838B83EB8162
:1009D000FC8110828B819C8101979C838B83EB81AE
:1009E000FC8182E080838B819C8101979C838B8337
:1009F000EB81FC8183E080838B819C8101979C83C8
:100A00008B83EB81FC8184E080838B819C810197C7
:100A10009C838B83EB81FC8185E080838B819C812F
:100A200001979C838B83EB81FC8186E080838B81A3
:100A30009C8101979C838B83EB81FC8187E0808381
:100A40008B819C8101979C838B83EB81FC8188E067
:100A500080838B819C8101979C838B83EB81FC81BC
:100A600089E080838B819C8101979C838B83EB81C0
:100A7000FC8180E180838B819C8101979C838B83A7
:100A8000EB81FC8181E180838B819C8101979C8338
:100A90008B83EB81FC8182E180838B819C81019738
:100AA0009C838B83EB81FC8183E180838B819C81A0
:100AB00001979C838B83EB81FC8184E180838B8114
:100AC0009C8101979C838B83EB81FC8185E18083F2
:100AD0008B819C8101979C838B83EB81FC8186E1D8
:100AE00080838B819C8101979C838B83EB81FC812C
:100AF00087E180838B819C8101979C838B83EB8131
:100B0000FC8188E180838B819C8101979C838B830E
:100B1000EB81FC8189E180838B819C8101979C839F
:100B20008B83EB81FC8180E280838B819C810197A8
:100B30009C838B83EB81FC8181E280838B819C8110
:100B400001979C838B83EB81FC8182E280838B8184
:100B50009C8101979C838B83EB81FC8183E2808362
:100B60008B819C8101979C838B838F8198859A834D
:100B700089838981EB81FC8180838B819C810197B2
:100B80009C838B8389819A81892F99279A83898372
:100B90008981EB81FC8180838B819C8101979C837F
:100BA0008B83EB81FC8186E280838B819C81019722
:100BB0009C838B83EB81FC8187E280838B819C818A
:100BC00001979C838B83EB81FC8188E280838B81FE
:100BD0009C8101979C838B83EB81FC8189E28083DC
:100BE0008B819C8101979C838B83EB81FC8180E3CB
:100BF00080838B819C8101979C838B83EB81FC811B
:100C000081E380838B819C8101979C838B838B8183
:100C10009C8128960FB6F894DEBF0FBECDBFCF9152
:100C2000DF910895DF93CF93CDB7DEB70E9402071F
:100C3000A091BC00B091BD00CD91CDBFDD91DEBFD4
:100C4000FF91EF91DF91CF91BF91AF919F918F91E4
:100C50007F916F915F914F913F912F911F910F91D4
:100C6000FF90EF90DF90CF90BF90AF909F908F90CC
:100C70007F906F905F904F903F902F901F900F90BC
:100C80000FBE0F90089581E0CF91DF910895DF931B
:100C9000CF93CDB7DEB7CF91DF9108950F920FB606
:100CA000F8940F921F9211242F923F924F925F92CD
:100CB0006F927F928F929F92AF92BF92CF92DF926C
:100CC000EF92FF920F931F932F933F934F935F9356
:100CD0006F937F938F939F93AF93BF93CF93DF9344
:100CE000EF93FF93A091BC00B091BD000DB60D92A3
:100CF0000EB60D920E94BE0FA091BC00B091BD0037
:100D0000CD91CDBFDD91DEBFFF91EF91DF91CF910E
:100D1000BF91AF919F918F917F916F915F914F9113
:100D20003F912F911F910F91FF90EF90DF90CF9007
:100D3000BF90AF909F908F907F906F905F904F90FB
:100D40003F902F901F900F900FBE0F9008950F921D
:100D50000FB6F8940F921F9211242F923F924F9248
:100D60005F926F927F928F929F92AF92BF92CF923B
:100D7000DF92EF92FF920F931F932F933F934F9326
:100D80005F936F937F938F939F93AF93BF93CF9313
:100D9000DF93EF93FF93A091BC00B091BD000DB61F
:100DA0000D920EB60D920E94E90E0E94BE0FA09108
:100DB000BC00B091BD00CD91CDBFDD91DEBFFF91F4
:100DC000EF91DF91CF91BF91AF919F918F917F91E3
:100DD0006F915F914F913F912F911F910F91FF90D4
:100DE000EF90DF90CF90BF90AF909F908F907F90CB
:100DF0006F905F904F903F902F901F900F900FBE7D
:100E00000F900895DF93CF9300D000D000D0CDB7DE
:100E1000DEB780E49FE1A0E0B0E08B839C83AD83EC
:100E2000BE838B819C81AD81BE81689415F8B69597
:100E3000A795979587951694D1F78B839C83AD835F
:100E4000BE838B819C81AD81BE810197A109B109CF
:100E50008B839C83AD83BE838B8189838B819C81B3
:100E6000AD81BE81892F9A2FAB2FBB278B839C83AB
:100E7000AD83BE838B818A83EBE4F0E08A8180833B
:100E8000EAE4F0E0898180838BE08983EEE4F0E09E
:100E900089818083E9E5F0E08081898389818061AF
:100EA0008983E9E5F0E08981808326960FB6F8947E
:100EB000DEBF0FBECDBFCF91DF9108950E94A70680
:100EC0001895DF93CF93CDB7DEB728970FB6F89478
:100ED000DEBF0FBECDBF8F8368871A8219828F81D4
:100EE000882309F48CC08FE190E00E9421039E8347
:100EF0008D838D819E81009709F481C08F81282F79
:100F000030E08885882F90E0AC01249FC001259FA8
:100F1000900D349F900D112401969C838B838B81BF
:100F20009C810E942103ED81FE8191838083ED816C
:100F3000FE8180819181009709F45DC0ED81FE8181
:100F4000408151818F81282F30E08885882F90E063
:100F5000BC01269FC001279F900D369F900D112444
:100F6000840F951FED81FE8193838283ED81FE8145
:100F7000128EED81FE8180819181ED81FE819583CC
:100F80008483ED81FE81408151818F81882F90E0A3
:100F90009C01215030408885882F90E0BC01269F1D
:100FA000C001279F900D369F900D1124840F951F2F
:100FB000ED81FE8197838683ED81FE818F81838F12
:100FC000ED81FE818885848FED81FE818FEF858F95
:100FD000ED81FE818FEF868F8D819E8108960E9424
:100FE00054038D819E8141960E9454038D819E8180
:100FF0009A83898304C08D819E810E943C038981EC
:101000009A8128960FB6F894DEBF0FBECDBFCF9160
:10101000DF910895DF93CF93CDB7DEB72C970FB64E
:10102000F894DEBF0FBECDBF9E838D8378876F831C
:101030005A8749872B8719820FB6F8940F92ED8152
:10104000FE81928DED81FE81838D9817D8F48D817C
:101050009E812F813885B9014B850E94450AED811B
:10106000FE818189882349F08D819E8141960E946D
:101070005A10813011F40E944E060F900FBE81E08D
:101080008C875CC089859A85009721F40F900FBEEC
:101090001C8654C08981882331F4CE0102960E94B7
:1010A000C21081E089830F900FBE0E941E0E0FB602
:1010B000F8940F92ED81FE81858D8F3F19F4ED81BB
:1010C000FE81158EED81FE81868D8F3F19F4ED81B5
:1010D000FE81168E0F900FBECE0102969E01275FF5
:1010E0003F4FB9010E94DB10882309F58D819E8155
:1010F0000E94A90B8823A1F08D819E8108962985E5
:101100003A85B9010E9424108D819E810E94220B94
:101110000E942A0E882309F08FCF0E944E068CCFA2
:101120008D819E810E94220B0E942A0E85CF8D8187
:101130009E810E94220B0E942A0E1C868C852C9672
:101140000FB6F894DEBF0FBECDBFCF91DF910895EB
:10115000DF93CF93CDB7DEB729970FB6F894DEBFF4
:101160000FBECDBF9C838B837E836D8358874F8357
:1011700029871982EB81FC81928DEB81FC81838D23
:10118000981740F58B819C812D813E81B90149855D
:101190000E94450AEB81FC81868D8F3F89F4EB81AB
:1011A000FC818189882399F08B819C8141960E94E2
:1011B0005A10882361F0EF81F88581E0808307C0B1
:1011C000EB81FC81868D8F5FEB81FC81868F81E0D6
:1011D0008A8301C01A828A8129960FB6F894DEBFED
:1011E0000FBECDBFCF91DF910895DF93CF93CDB7E1
:1011F000DEB72E970FB6F894DEBF0FBECDBF98872F
:101200008F837A8769875C874B872D871B820FB610
:10121000F8940F92EF81F885828D882309F43FC0FE
:10122000EF81F885868197819A8389838F8198855C
:1012300029853A85B9010E94DA0A8D858823B1F49F
:10124000EF81F885828D8150EF81F885828FEF8163
:10125000F88580858823F1F08F81988508960E9413
:101260005A108130B9F40E944E0614C0EF81F885FF
:1012700089819A8197838683EF81F8858189882384
:1012800049F08F81988541960E945A10882311F069
:101290000E944E060F900FBE81E08E875CC08B854A
:1012A0009C85009721F40F900FBE1E8654C08B8141
:1012B000882331F4CE0104960E94C21081E08B8312
:1012C0000F900FBE0E941E0E0FB6F8940F92EF8182
:1012D000F885858D8F3F19F4EF81F885158EEF81A4
:1012E000F885868D8F3F19F4EF81F885168E0F9063
:1012F0000FBECE0104969E01255F3F4FB9010E94AB
:10130000DB10882309F58F8198850E94760B88234E
:10131000A1F08F81988541962B853C85B9010E946B
:1013200024108F8198850E94220B0E942A0E882308
:1013300009F06DCF0E944E066ACF8F8198850E947A
:10134000220B0E942A0E63CF8F8198850E94220B68
:101350000E942A0E1E868E852E960FB6F894DEBF4A
:101360000FBECDBFCF91DF910895DF93CF93CDB75F
:10137000DEB728970FB6F894DEBF0FBECDBF9C83B3
:101380008B837E836D8358874F831982EB81FC8129
:10139000828D882371F18B819C812D813E81B901E1
:1013A0000E94DA0AEB81FC81828D8150EB81FC8105
:1013B000828FEB81FC81858D8F3F89F4EB81FC81ED
:1013C0008085882399F08B819C8108960E945A1011
:1013D000882361F0EF81F88581E0808307C0EB818D
:1013E000FC81858D8F5FEB81FC81858F81E08A8315
:1013F00001C01A828A8128960FB6F894DEBF0FBE0C
:10140000CDBFCF91DF910895DF93CF9300D00F929E
:10141000CDB7DEB79B838A830FB6F8940F92EA812B
:10142000FB81828D89830F900FBE89810F900F9071
:101430000F90CF91DF910895DF93CF9300D00F925B
:10144000CDB7DEB79B838A83EA81FB81828D898356
:1014500089810F900F900F90CF91DF910895DF93C6
:10146000CF9300D0CDB7DEB79A838983E981FA8123
:10147000808191810E943C0389819A810E943C0372
:101480000F900F90CF91DF910895DF93CF9300D00D
:1014900000D00F92CDB7DEB79A8389837C836B83AC
:1014A0004D83E981FA81848D882309F474C08D818C
:1014B000882399F5E981FA8164817581E981FA814E
:1014C000848D482F50E02B813C81CB01B9010E94D3
:1014D0007317E981FA8124813581E981FA81848D4C
:1014E000882F90E0820F931FE981FA81958384838E
:1014F000E981FA8124813581E981FA8182819381B0
:101500002817390708F447C0E981FA818081918161
:10151000E981FA81958384833EC0E981FA816681FD
:101520007781E981FA81848D482F50E02B813C81BD
:10153000CB01B9010E947317E981FA8126813781B5
:10154000E981FA81848D882F90E0909581959F4F55
:10155000820F931FE981FA8197838683E981FA815B
:1015600026813781E981FA818081918128173907A5
:1015700090F4E981FA8122813381E981FA81848DB5
:10158000882F90E0909581959F4F820F931FE9815E
:10159000FA8197838683E981FA81828D8F5FE98161
:1015A000FA81828F0F900F900F900F900F90CF9134
:1015B000DF910895DF93CF9300D000D0CDB7DEB791
:1015C0009A8389837C836B83E981FA81808191810D
:1015D000009789F1E981FA8126813781E981FA81D1
:1015E000848D882F90E0820F931FE981FA81978381
:1015F0008683E981FA8126813781E981FA818281B6
:1016000093812817390740F0E981FA81808191811F
:10161000E981FA8197838683E981FA81468157813E
:10162000E981FA81848D282F30E08B819C81BA0179
:10163000A9010E9473170F900F900F900F90CF91F8
:10164000DF910895DF93CF9300D0CDB7DEB79A83B3
:1016500089830FB6F8940F9215C0E981FA818189C8
:101660008823A9F089819A8141960E945A10882383
:1016700011F00E943811E981FA81868D8150E9814B
:10168000FA81868FE981FA81868D181634F3E98113
:10169000FA818FEF868F0F900FBE0FB6F8940F92DE
:1016A00015C0E981FA8180858823A9F089819A8112
:1016B00008960E945A10882311F00E943811E9817F
:1016C000FA81858D8150E981FA81858FE981FA81DE
:1016D000858D181634F3E981FA818FEF858F0F908D
:1016E0000FBE0F900F90CF91DF910895DF93CF93AE
:1016F00000D00F92CDB7DEB79B838A830FB6F894E4
:101700000F92EA81FB81828D1982882311F481E096
:1017100089830F900FBE89810F900F900F90CF910A
:10172000DF910895DF93CF9300D00F92CDB7DEB74E
:101730009B838A83EA81FB81828D1982882311F43D
:1017400081E0898389810F900F900F90CF91DF9175
:101750000895DF93CF9300D00F92CDB7DEB79B8370
:101760008A830FB6F8940F92EA81FB81928DEA8109
:10177000FB81838D1982981711F481E089830F9082
:101780000FBE89810F900F900F90CF91DF91089538
:10179000DF93CF9300D00F92CDB7DEB79B838A83C0
:1017A000EA81FB81928DEA81FB81838D19829817F2
:1017B00011F481E0898389810F900F900F90CF9170
:1017C000DF910895AF92BF92CF92DF92EF92FF9296
:1017D0000F931F93DF93CF93CDB7DEB764970FB608
:1017E000F894DEBF0FBECDBF9F838E837987688755
:1017F0005B874A873D872C870E87F88AEF86DA8ACF
:10180000C98ABC8AAB8A8A859B8529893A89B901AC
:101810000E9467129C838B838B819C81009709F4C3
:1018200099C0EB81FC812789308D8A859B85019742
:10183000820F931F9A8389838B819C8128853985A8
:10184000EB89FC89AA85BB85B9014E859F018D0175
:101850000E944C1189819A812E813F814C855D8542
:10186000B9010E948F04EB81FC81918380838F8575
:101870009889009731F0EF85F8898B819C8191835D
:1018800080830FB6F8940F928091BF008F5F809392
:10189000BF008091BC009091BD00009769F48B81DE
:1018A0009C819093BD008093BC008091BF008130EB
:1018B000A9F40E94A31112C08091C400882371F47E
:1018C000E091BC00F091BD0096898E85891730F0BB
:1018D0008B819C819093BD008093BC00EB81FC8147
:1018E00096898091C200891728F4EB81FC81868952
:1018F0008093C2008091C9008F5F8093C900EB8103
:10190000FC8196898091C300891728F4EB81FC81C2
:1019100086898093C300EB81FC818689282F30E083
:10192000C901880F991F880F991F880F991F820F6F
:10193000931FAC0146535F4F8B819C819C012E5FAE
:101940003F4FCA01B9010E948E0381E08D830F9041
:101950000FBE02C08FEF8D838D81813071F4809135
:10196000C400882351F0E091BC00F091BD0096893D
:101970008E85981710F40E944E068D8164960FB6DE
:10198000F894DEBF0FBECDBFCF91DF911F910F91B5
:10199000FF90EF90DF90CF90BF90AF900895DF93CE
:1019A000CF9300D000D000D0CDB7DEB79C838B831F
:1019B0000FB6F8940F922091BC003091BD008B813E
:1019C0009C818217930711F41C821B828B819C815E
:1019D000009739F48091BC009091BD009E838D8367
:1019E00004C08B819C819E838D838D819E819A838F
:1019F000898389819A8102960E944604E981FA814D
:101A000084899589009729F089819A810C960E9492
:101A1000460489819A819C012E5F3F4F8BEF90E0B5
:101A2000B9010E948E038091BE008F5F8093BE003B
:101A30008091C9008F5F8093C9000F900FBE809185
:101A4000C400882331F08B819C81009711F40E949F
:101A50004E0626960FB6F894DEBF0FBECDBFCF91CF
:101A6000DF910895DF93CF93CDB7DEB728970FB6F8
:101A7000F894DEBF0FBECDBF9E838D8378876F83C2
:101A800019820E941E0EED81FE81208131818F819D
:101A90009885820F931F9C838B83ED81FE8120812B
:101AA00031818091C0009091C10082179307A8F402
:101AB000ED81FE81208131818B819C81821793078A
:101AC00000F52091C0003091C1008B819C812817C6
:101AD0003907B8F481E0898314C0ED81FE8120814B
:101AE00031818B819C818217930748F02091C0003F
:101AF0003091C1008B819C812817390710F481E057
:101B00008983ED81FE818B819C8191838083898192
:101B1000882359F08091BC009091BD0002960E94EC
:101B200046048B819C810E941E120E942A0E8A8389
:101B30008A81882311F40E944E0628960FB6F894E5
:101B4000DEBF0FBECDBFCF91DF910895DF93CF935E
:101B500000D000D00F92CDB7DEB79D838C83198261
:101B60008C819D810097D1F00E941E0E2091C000B3
:101B70003091C1008C819D81820F931F9B838A834A
:101B80008091BC009091BD0002960E9446048A811B
:101B90009B810E941E120E942A0E898389818823BC
:101BA00011F40E944E060F900F900F900F900F901F
:101BB000CF91DF910895AF92BF92CF92DF92EF92D3
:101BC000FF920F93DF93CF930F92CDB7DEB720E64E
:101BD00030E082E491E1B90145E550E020E030E0F9
:101BE00000E0EE24FF24CC24DD24AA24BB240E94A0
:101BF000E20B89838981813051F4F89481E08093EC
:101C0000C4001092C1001092C0000E9412060F90F2
:101C1000CF91DF910F91FF90EF90DF90CF90BF9029
:101C2000AF900895DF93CF93CDB7DEB7F8941092BD
:101C3000C4000E944706CF91DF910895DF93CF93B0
:101C4000CDB7DEB78091C5008F5F8093C500CF917F
:101C5000DF910895DF93CF9300D000D0CDB7DEB7EA
:101C60001A820FB6F8940F928091C500815080932C
:101C7000C5008091C500882309F06CC08091BF0029
:101C8000882309F467C0198241C0E091F700F09100
:101C9000F800868197819C838B838B819C810C9635
:101CA0000E9446048B819C8102960E944604EB812F
:101CB000FC8196898091C300891728F4EB81FC810F
:101CC00086898093C300EB81FC818689282F30E0D0
:101CD000C901880F991F880F991F880F991F820FBC
:101CE000931F86539F4F2B813C812E5F3F4FB9013D
:101CF0000E948E03EB81FC819689E091BC00F091FB
:101D0000BD008689981710F081E089838091F200E8
:101D1000882309F0BACF8091C600882371F007C0EC
:101D20000E94E90E8091C60081508093C600809188
:101D3000C6008823A9F781E089838981813021F059
:101D40008091C700813031F481E08A831092C7000E
:101D50000E944E060F900FBE8A810F900F900F9039
:101D60000F90CF91DF910895DF93CF9300D0CDB73F
:101D7000DEB70FB6F8940F928091C0009091C10029
:101D80009A8389830F900FBE89819A810F900F905B
:101D9000CF91DF910895DF93CF9300D00F92CDB70D
:101DA000DEB719828091C0009091C1009B838A8325
:101DB0008A819B810F900F900F90CF91DF910895B2
:101DC000DF93CF93CDB7DEB78091BF00CF91DF9186
:101DD0000895DF93CF9300D000D000D0CDB7DEB709
:101DE0008091C500882309F0BBC08091C00090910C
:101DF000C10001969093C1008093C0008091C00003
:101E00009091C1000097D1F58091EE009091EF0084
:101E10009C838B838091F0009091F1009093EF0070
:101E20008093EE008B819C819093F1008093F00071
:101E30008091C8008F5F8093C800E091EE00F09120
:101E4000EF008081882339F48FEF9FEF909381001A
:101E50008093800013C0E091EE00F091EF000580C8
:101E6000F681E02D868197819E838D83ED81FE81B1
:101E70008281938190938100809380002091C000A3
:101E80003091C1008091800090918100281739071E
:101E900008F46BC0E091EE00F091EF0080818823A0
:101EA00039F48FEF9FEF90938100809380005DC0A5
:101EB000E091EE00F091EF000580F681E02D868143
:101EC00097819E838D83ED81FE81828193819A83A8
:101ED00089832091C0003091C10089819A8128179F
:101EE000390738F489819A8190938100809380002A
:101EF0003CC08D819E8102960E944604ED81FE8148
:101F000084899589009729F08D819E810C960E9485
:101F10004604ED81FE8196898091C300891728F4DB
:101F2000ED81FE8186898093C300ED81FE818689E3
:101F3000282F30E0C901880F991F880F991F880F3B
:101F4000991F820F931FAC0146535F4F8D819E8175
:101F50009C012E5F3F4FCA01B9010E948E039ACFA8
:101F60008091C6008F5F8093C60026960FB6F894C6
:101F7000DEBF0FBECDBFCF91DF910895DF93CF932A
:101F800000D0CDB7DEB78091C500882349F081E04D
:101F90008093C70054C08091C30081508093C300D8
:101FA0008091C300282F30E0C901880F991F880F46
:101FB000991F880F991F820F931FFC01E653FF4F53
:101FC0008081882341F38091C300282F30E0C9012C
:101FD000880F991F880F991F880F991F820F931FD1
:101FE00086539F4F9A838983E981FA810180F28128
:101FF000E02D82819381E981FA8192838183E98155
:10200000FA812181328189819A81039628173907C3
:1020100059F4E981FA810180F281E02D8281938176
:10202000E981FA8192838183E981FA810180F281D9
:10203000E02D868197819093BD008093BC000F9026
:102040000F90CF91DF910895DF93CF9300D000D010
:1020500000D0CDB7DEB79C838B837E836D834B81AD
:102060005C818091BC009091BD009C01245F3F4F3A
:10207000CA01B9010E94DA038091BC009091BD00B1
:1020800002960E9446042091C0003091C1008D81CB
:102090009E81820F931F9A83898389819A810E94EE
:1020A0001E1226960FB6F894DEBF0FBECDBFCF919D
:1020B000DF910895DF93CF9300D000D00F92CDB77A
:1020C000DEB79D838C83EC81FD810580F681E02D58
:1020D000868197819B838A838A819B810C960E944B
:1020E00046048091C500882361F58A819B81029610
:1020F0000E944604EA81FB8196898091C30089177A
:1021000028F4EA81FB8186898093C300EA81FB8100
:102110008689282F30E0C901880F991F880F991FE1
:10212000880F991F820F931FAC0146535F4F8A811E
:102130009B819C012E5F3F4FCA01B9010E948E0313
:102140000AC08A819B819C01245F3F4F82EF90E00F
:10215000B9010E948E03EA81FB819689E091BC005F
:10216000F091BD008689981718F081E0898301C03D
:10217000198289810F900F900F900F900F90CF913F
:10218000DF910895DF93CF9300D0CDB7DEB79A8368
:1021900089838091C800E981FA8180838091C000A1
:1021A0009091C100E981FA81928381830F900F9011
:1021B000CF91DF910895DF93CF9300D000D00F929D
:1021C000CDB7DEB79B838A837D836C830FB6F8948B
:1021D0000F92EA81FB8190818091C800981771F07D
:1021E000EA81FB81218132818091C0009091C10000
:1021F0008217930718F081E089832FC02091C000D7
:102200003091C100EA81FB8181819281281B390BC9
:10221000EC81FD818081918128173907E0F4EC8100
:10222000FD8140815181EA81FB8121813281809150
:10223000C0009091C100B901681B790BCB01840FDC
:10224000951FEC81FD81918380838A819B810E940F
:10225000C210198202C081E089830F900FBE89816C
:102260000F900F900F900F900F90CF91DF910895E6
:10227000DF93CF93CDB7DEB781E08093C700CF91D6
:10228000DF910895DF93CF9300D0CDB7DEB79A8367
:1022900089830E94E011FDCF0F931F93DF93CF93AB
:1022A000CDB7DEB729970FB6F894DEBF0FBECDBF0E
:1022B0009A8389837C836B834D833F832E83198725
:1022C000088789819A8149962B813C81B90148E030
:1022D00050E00E948317E981FA8110A28D8182303B
:1022E00010F081E08D83E981FA818D81868B89816F
:1022F0009A8102960E947E0389819A810C960E949F
:102300007E03E981FA8189819A81918780878D8115
:10231000282F30E082E090E0821B930BE981FA8164
:1023200095878487E981FA8189819A81938B828B51
:1023300029960FB6F894DEBF0FBECDBFCF91DF91C7
:102340001F910F910895DF93CF930F92CDB7DEB712
:10235000198213C08981282F30E0C901880F991F85
:10236000880F991F880F991F820F931F86539F4FC5
:102370000E94540389818F5F89838981823050F361
:102380008CED90E00E94540385EE90E00E9454038F
:1023900082EF90E00E9454038BEF90E00E94540380
:1023A0008CED90E09093EF008093EE0085EE90E04E
:1023B0009093F1008093F0000F90CF91DF910895FA
:1023C000DF93CF9300D00F92CDB7DEB78091BE00E0
:1023D000882371F10E941E0E8091FB001B828823CE
:1023E00011F481E08B830E942A0E8B81882301F5F2
:1023F0000FB6F8940F92E0910001F09101018681EF
:1024000097819A83898389819A8102960E944604E2
:102410008091BF0081508093BF008091BE008150A9
:102420008093BE000F900FBE89819A810E94B712DF
:102430000F900F900F90CF91DF910895DF93CF937E
:1024400000D0CDB7DEB79A838983E091BC00F091CC
:10245000BD0089819A81938382832091C00030914D
:10246000C10089819A818217930770F48091F000EE
:102470009091F1002091BC003091BD002E5F3F4F44
:10248000B9010E94DA031EC04091EE005091EF00A6
:102490008091BC009091BD009C012E5F3F4FCA010E
:1024A000B9010E94DA032091800030918100898176
:1024B0009A818217930730F489819A8190938100E1
:1024C000809380000F900F90CF91DF910895DF935C
:1024D000CF93CDB7DEB728970FB6F894DEBF0FBE07
:1024E000CDBF9C838B837E836D8381E290E00E94CD
:1024F00021039A83898389819A81009769F18D816B
:102500009E81009739F48B819C810E9421039887DA
:102510008F8304C08D819E8198878F83E981FA81A2
:102520008F819885908F878BE981FA818789908D3B
:10253000009739F489819A810E943C031A8219829A
:102540000BC0E981FA818789908D2B813C8165EAF6
:1025500070E0A9010E947C1789819A8128960FB6A4
:10256000F894DEBF0FBECDBFCF91DF910895DF930A
:10257000CF9300D0CDB7DEB79A838983E981FA8102
:102580008789908D0E943C0389819A810E943C0337
:102590000F900F90CF91DF910895DF93CF93CDB738
:1025A000DEB727970FB6F894DEBF0FBECDBF898385
:1025B0006A834B838981843008F0EEC08A81883039
:1025C00008F0EAC08B81813009F06FC08981282F23
:1025D00030E03F832E838E819F818130910549F1C8
:1025E0002E813F81223031052CF48E819F8100970E
:1025F00061F0D2C02E813F812230310571F18E8190
:102600009F8183309105E9F1C7C0ABE3B0E0EBE314
:10261000F0E08081482F8A81282F30E081E090E02F
:10262000022E02C0880F991F0A94E2F7842B8C9324
:10263000B3C0A8E3B0E0E8E3F0E08081482F8A81EE
:10264000282F30E081E090E0022E02C0880F991F11
:102650000A94E2F7842B8C939FC0A5E3B0E0E5E3F6
:10266000F0E08081482F8A81282F30E081E090E0DF
:10267000022E02C0880F991F0A94E2F7842B8C93D4
:102680008BC0A2E3B0E0E2E3F0E08081482F8A81D2
:10269000282F30E081E090E0022E02C0880F991FC1
:1026A0000A94E2F7842B8C9377C08B81882309F0FE
:1026B00073C08981282F30E03D832C838C819D81DC
:1026C0008130910559F12C813D81223031052CF466
:1026D0008C819D81009769F05FC02C813D81223003
:1026E000310589F18C819D818330910509F440C0C9
:1026F00053C0ABE3B0E0EBE3F0E08081482F8A8188
:10270000282F30E081E090E0022E02C0880F991F50
:102710000A94E2F7809584238C933EC0A8E3B0E04E
:10272000E8E3F0E08081482F8A81282F30E081E0C3
:1027300090E0022E02C0880F991F0A94E2F780955C
:1027400084238C9329C0A5E3B0E0E5E3F0E0808129
:10275000482F8A81282F30E081E090E0022E02C0CD
:10276000880F991F0A94E2F7809584238C9314C0F4
:10277000A2E3B0E0E2E3F0E08081482F8A81282FD5
:1027800030E081E090E0022E02C0880F991F0A9489
:10279000E2F7809584238C9327960FB6F894DEBFDA
:1027A0000FBECDBFCF91DF910895DF93CF9300D0BF
:1027B00000D00F92CDB7DEB78A836B838A818430D5
:1027C00008F06CC08B81883008F068C08A81282F9F
:1027D00030E03D832C834C815D814130510541F1D6
:1027E0008C819D818230910534F42C813D812115AD
:1027F000310561F055C04C815D814230510551F188
:102800008C819D8183309105B9F14AC0E9E3F0E004
:102810008081282F30E08B81882F90E0A90102C0B1
:10282000559547958A95E2F7CA018170898338C02A
:10283000E6E3F0E08081282F30E08B81882F90E064
:10284000A90102C0559547958A95E2F7CA018170A2
:10285000898326C0E3E3F0E08081282F30E08B817C
:10286000882F90E0A90102C0559547958A95E2F717
:10287000CA018170898314C0E0E3F0E08081282FD1
:1028800030E08B81882F90E0A90102C055954795D3
:102890008A95E2F7CA018170898302C08FEF89832C
:1028A00089810F900F900F900F900F90CF91DF9133
:1028B0000895DF93CF93CDB7DEB727970FB6F8947F
:1028C000DEBF0FBECDBF89836A834B83898184308D
:1028D00008F0EEC08A81883008F0EAC08B81813030
:1028E00009F06FC08981282F30E03F832E838E81CD
:1028F0009F818130910549F12E813F812230310540
:102900002CF48E819F81009761F0D2C02E813F818F
:102910002230310571F18E819F8183309105E9F17B
:10292000C7C0AAE3B0E0EAE3F0E08081482F8A81E3
:10293000282F30E081E090E0022E02C0880F991F1E
:102940000A94E2F7842B8C93B3C0A7E3B0E0E7E3EB
:10295000F0E08081482F8A81282F30E081E090E0EC
:10296000022E02C0880F991F0A94E2F7842B8C93E1
:102970009FC0A4E3B0E0E4E3F0E08081482F8A81C7
:10298000282F30E081E090E0022E02C0880F991FCE
:102990000A94E2F7842B8C938BC0A1E3B0E0E1E3CF
:1029A000F0E08081482F8A81282F30E081E090E09C
:1029B000022E02C0880F991F0A94E2F7842B8C9391
:1029C00077C08B81882309F073C08981282F30E07C
:1029D0003D832C838C819D818130910559F12C811F
:1029E0003D81223031052CF48C819D81009769F066
:1029F0005FC02C813D812230310589F18C819D8120
:102A00008330910509F440C053C0AAE3B0E0EAE383
:102A1000F0E08081482F8A81282F30E081E090E02B
:102A2000022E02C0880F991F0A94E2F78095842332
:102A30008C933EC0A7E3B0E0E7E3F0E08081482F4D
:102A40008A81282F30E081E090E0022E02C0880FBA
:102A5000991F0A94E2F7809584238C9329C0A4E3FC
:102A6000B0E0E4E3F0E08081482F8A81282F30E055
:102A700081E090E0022E02C0880F991F0A94E2F7CD
:102A8000809584238C9314C0A1E3B0E0E1E3F0E0EF
:102A90008081482F8A81282F30E081E090E0022E4B
:102AA00002C0880F991F0A94E2F7809584238C93C3
:102AB00027960FB6F894DEBF0FBECDBFCF91DF9142
:102AC0000895DF93CF9300D000D0CDB7DEB78983D0
:102AD0006A838981282F30E03C832B838B819C8102
:102AE00081309105D1F02B813C81223031052CF4CD
:102AF0008B819C81009761F01EC02B813C8122302C
:102B0000310581F08B819C818330910581F013C068
:102B1000EAE3F0E08A8180830EC0E7E3F0E08A8197
:102B2000808309C0E4E3F0E08A81808304C0E1E3AC
:102B3000F0E08A8180830F900F900F900F90CF91DB
:102B4000DF910895DF93CF9300D000D0CDB7DEB7EB
:102B500089836A838981282F30E03C832B838B8192
:102B60009C8181309105D1F02B813C81223031054F
:102B70002CF48B819C81009761F01EC02B813C81DD
:102B80002230310581F08B819C818330910581F069
:102B900013C0EBE3F0E08A8180830EC0E8E3F0E04D
:102BA0008A81808309C0E5E3F0E08A81808304C0E4
:102BB000E2E3F0E08A8180830F900F900F900F90F6
:102BC000CF91DF910895AF92BF92CF92DF92EF92B3
:102BD000FF920F93DF93CF93CDB7DEB70E942D16F0
:102BE00025E630E089E196E1E4E0F1E0B90145E570
:102BF00050E020E030E001E07F01CC24DD24AA2475
:102C0000BB240E94E20B2FE630E083E296E1E6E08F
:102C1000F1E0B90145E550E020E030E001E07F015E
:102C2000CC24DD24AA24BB240E94E20B0E94DB0DED
:102C3000FFCFDF93CF9300D0CDB7DEB79A838983E0
:102C40000E943E16FDCFDF93CF9300D0CDB7DEB705
:102C50009A8389830E944A16FDCFDF93CF93CDB725
:102C6000DEB780E060E041E00E94591480E061E05E
:102C700041E00E945914CF91DF910895DF93CF93E3
:102C8000CDB7DEB780E060E041E00E94CD12CF9189
:102C9000DF910895DF93CF93CDB7DEB780E060E09A
:102CA00040E00E94CD12CF91DF910895DF93CF9342
:102CB000CDB7DEB780E061E041E00E94CD12CF9158
:102CC000DF910895DF93CF93CDB7DEB780E061E069
:102CD00040E00E94CD12CF91DF910895CF93DF9312
:102CE000BC018230910510F462E070E0A0910A010D
:102CF000B0910B01ED01E0E0F0E040E050E021C0D8
:102D0000888199818617970769F48A819B8130971A
:102D100019F09383828304C090930B0180930A017E
:102D2000FE0134C06817790738F44115510519F0D0
:102D30008417950708F4AC01FE018A819B819C01F0
:102D4000E9012097E9F641155105A9F1CA01861B51
:102D5000970B049708F4BA01E0E0F0E02AC08D91E7
:102D60009C91119784179507F9F46417750781F4FE
:102D700012968D919C911397309719F093838283CB
:102D800004C090930B0180930A01FD0132964FC05D
:102D9000CA01861B970BFD01E80FF91F6193719320
:102DA00002978D939C9343C0FD01828193819C0186
:102DB000D9011097A1F68091080190910901892B02
:102DC00041F480917C0090917D0090930901809363
:102DD000080140917E0050917F004115510541F45A
:102DE0004DB75EB780917A0090917B00481B590BDC
:102DF000209108013091090124173507B0F4CA0168
:102E0000821B930B8617970780F0AB014E5F5F4FD5
:102E10008417950750F0420F531F509309014093B8
:102E20000801F9016193719302C0E0E0F0E0CF0185
:102E3000DF91CF910895CF93DF93009709F450C0AD
:102E4000EC0122971B821A82A0910A01B0910B011A
:102E5000109709F140E050E0AC17BD0708F1BB83C3
:102E6000AA83FE0121913191E20FF31FAE17BF0734
:102E700079F48D919C911197280F391F2E5F3F4F48
:102E80003983288312968D919C9113979B838A8313
:102E90004115510571F4D0930B01C0930A0120C074
:102EA00012968D919C911397AD01009711F0DC0162
:102EB000D3CFFA01D383C28321913191E20FF31F63
:102EC000CE17DF0769F488819981280F391F2E5F9B
:102ED0003F4FFA01318320838A819B8193838283D0
:102EE000DF91CF910895FB01DC0102C001900D92AA
:102EF00041505040D8F70895DC0101C06D93415016
:102F00005040E0F70895FB01DC014150504048F08B
:102F100001900D920020C9F701C01D924150504010
:082F2000E0F70895F894FFCFDB
:102F280049444C45005265644C65645F4F4E0052FD
:102F380065644C65645F4F46460020000C01000044
:022F4800FFFF89
:00000001FF
