:100000000C942A000C9447000C9447000C94470071
:100010000C9447000C9447000C9447000C94A708DC
:100020000C9447000C9447000C9447000C94470034
:100030000C9447000C9447000C9447000C94470024
:100040000C9447000C9447000C9447000C94470014
:100050000C94470011241FBECFE5D8E0DEBFCDBF12
:1000600010E0A0E6B0E0EEE2F6E502C005900D92E9
:10007000AA38B107D9F711E0AAE8B0E001C01D9293
:10008000AA32B107E1F70E9451280C94152B0C9469
:100090000000EF92FF920F931F937B018C0120E0F1
:1000A00030E040E05FE40E94490388238CF0C801FF
:1000B000B70120E030E040E05FE40E94C1010E940F
:1000C000A9039B01AC01205030404040504806C07D
:1000D000C801B7010E94A9039B01AC01B901CA0183
:1000E0001F910F91FF90EF900895A0E0B0E0EBE733
:1000F000F0E00C94D029DC012B01FA019C919230A4
:1001000008F439C1EB018881823008F433C194309E
:1001100069F4843009F02FC111969C91119789815F
:10012000981709F428C1ACE7B0E025C1843009F480
:1001300021C18230A9F4923009F01DC19A01AD01AC
:1001400088E0EA010990AE01E90109929E0181501F
:10015000C1F7E201898111969C918923818308C1AD
:10016000923009F407C112962D903C901397EB0141
:100170008A819B811496AD90BD90CD90DC901797AD
:10018000EC80FD800E811F819101281B390BB90184
:1001900037FF04C066277727621B730B6032710537
:1001A0000CF061C0121613066CF537014801062EDB
:1001B00004C096948794779467940A94D2F721E0C8
:1001C00030E040E050E004C0220F331F441F551FB1
:1001D0006A95D2F721503040404050402E213F21B7
:1001E00040235123211531054105510521F021E01E
:1001F00030E040E050E079018A01E628F72808293C
:1002000019293CC0232BD1F1260E371E350146019A
:10021000062E04C096948794779467940A94D2F734
:1002200021E030E040E050E004C0220F331F441FC3
:10023000551F6A95D2F721503040404050402A2146
:100240003B214C215D21211531054105510521F04E
:1002500021E030E040E050E059016A01A628B728CB
:10026000C828D9280BC0821593052CF01C01AA249C
:10027000BB24650103C0EE24FF24870111969C91E5
:10028000D20111968C91981709F445C0992339F041
:10029000A80197012A193B094C095D0906C0A6016E
:1002A00095012E193F09400B510B57FD08C01182D3
:1002B0003382228224833583468357831DC081E0A5
:1002C00081833382228288279927DC01821B930B4A
:1002D000A40BB50B84839583A683B7830DC0220F2F
:1002E000331F441F551F24833583468357838281E0
:1002F000938101979383828324813581468157813D
:10030000DA01C9010197A109B1098F5F9F4FAF4F72
:10031000BF4328F30BC0918333822282EA0CFB1C7B
:100320000C1D1D1DE482F5820683178383E0808304
:10033000248135814681578157FF1AC0C901AA27F8
:1003400097FDA095BA2F81709070A070B0705695EF
:10035000479537952795822B932BA42BB52B848318
:100360009583A683B7838281938101969383828349
:10037000DF0101C0D201CD01CDB7DEB7E2E10C94BF
:10038000EC29A0E2B0E0E7ECF1E00C94DC29698311
:100390007A838B839C832D833E834F835887E9E048
:1003A000EE2EF12CEC0EFD1ECE010196B7010E943F
:1003B000D2048E010F5E1F4FCE010596B8010E9438
:1003C000D2048A8991E089278A8BC701B801AE01DE
:1003D000475E5F4F0E9475000E94FD03A096E6E015
:1003E0000C94F829A0E2B0E0E8EFF1E00C94DC29ED
:1003F00069837A838B839C832D833E834F835887C5
:10040000F9E0EF2EF12CEC0EFD1ECE010196B701A6
:100410000E94D2048E010F5E1F4FCE010596B801D7
:100420000E94D204C701B801AE01475E5F4F0E942F
:1004300075000E94FD03A096E6E00C94F829A0E266
:10044000B0E0E5E2F2E00C94D02969837A838B83F3
:100450009C832D833E834F835887CE010196BE0136
:10046000675F7F4F0E94D204CE010596BE016F5E8A
:100470007F4F0E94D2049985923088F0898982301A
:10048000C8F0943019F4823051F404C0843029F457
:10049000923081F48CE790E0C6C0923049F420E0BD
:1004A0009A858A89981321E02A87CE010996BBC0D4
:1004B000823049F420E09A858A89981321E02A8BBA
:1004C000CE014196B0C02D843E844F8458886D88FB
:1004D0007E888F88988CEE24FF248701AA24BB2471
:1004E000650140E050E060E070E0E0E0F0E0C10174
:1004F00081709070892BE9F0E60CF71C081D191D1E
:100500009A01AB012A0D3B1D4C1D5D1D80E090E062
:10051000A0E0B0E0E614F7040805190520F481E036
:1005200090E0A0E0B0E0BA01A901480F591F6A1F8E
:100530007B1FAA0CBB1CCC1CDD1C97FE08C081E0F5
:1005400090E0A0E0B0E0A82AB92ACA2ADB2A3196B6
:10055000E032F10549F0660C771C881C991C569412
:10056000479437942794C3CFFA85EA892B893C892D
:100570008B859C85280F391F2E5F3F4F17C0CA01FE
:1005800081709070892B61F016950795F794E79428
:1005900080E090E0A0E0B0E8E82AF92A0A2B1B2BC3
:1005A00076956795579547952F5F3F4F77FDE7CF36
:1005B0000CC0440F551F661F771F17FD4160EE0CDE
:1005C000FF1C001F111F21503040403090E05907A0
:1005D00090E0690790E4790760F32B8F3C8FDB0193
:1005E000CA018F779070A070B07080349105A1051A
:1005F000B10561F447FD0AC0E114F10401051105DC
:1006000029F0405C5F4F6F4F7F4F40781A8EFE1786
:1006100011F081E08A8F4D8F5E8F6F8F78A383E01A
:10062000898FCE0149960E94FD03A096E2E10C94C9
:10063000EC29A8E1B0E0EFE1F3E00C94DC29698358
:100640007A838B839C832D833E834F83588789E0F5
:10065000E82EF12CEC0EFD1ECE010196B7010E9492
:10066000D2048E010F5E1F4FCE010596B8010E9485
:10067000D2048985823040F08989823028F0C70110
:10068000B8010E944A0501C08FEF6896E6E00C941D
:10069000F829A8E1B0E0EFE4F3E00C94DC296983E9
:1006A0007A838B839C832D833E834F83588789E095
:1006B000E82EF12CEC0EFD1ECE010196B7010E9432
:1006C000D2048E010F5E1F4FCE010596B8010E9425
:1006D000D2048985823040F08989823028F0C701B0
:1006E000B8010E944A0501C08FEF6896E6E00C94BD
:1006F000F829A8E1B0E0EFE7F3E00C94DC29698386
:100700007A838B839C832D833E834F83588789E034
:10071000E82EF12CEC0EFD1ECE010196B7010E94D1
:10072000D2048E010F5E1F4FCE010596B8010E94C4
:10073000D2048985823040F08989823028F0C7014F
:10074000B8010E944A0501C081E06896E6E00C9479
:10075000F829ACE0B0E0EFEAF3E00C94E02969831B
:100760007A838B839C83CE010196BE016B5F7F4FA2
:100770000E94D2048D81823061F1823050F1843048
:1007800021F48E81882351F12EC02F81388537FDC9
:1007900020C06E812F3131051CF06623F9F023C093
:1007A0008EE190E0821B930B29853A854B855C8511
:1007B00004C056954795379527958A95D2F76623B5
:1007C000B1F050954095309521953F4F4F4F5F4F79
:1007D0000EC020E030E040E050E009C02FEF3FEFD6
:1007E0004FEF5FE704C020E030E040E050E8B9019F
:1007F000CA012C96E2E00C94FC29DF92EF92FF9262
:100800000F931F93FC01E480F58006811781D1804E
:100810008081823048F480E090E0A0E1B0E0E82AF6
:10082000F92A0A2B1B2BA5C0843009F49FC0823003
:1008300021F4EE24FF24870105C0E114F104010531
:10084000110519F4E0E0F0E096C0628173819FEF3A
:10085000623879070CF05BC022E83FEF261B370BAC
:100860002A3131052CF020E030E040E050E02AC091
:10087000B801A701022E04C0769567955795479554
:100880000A94D2F781E090E0A0E0B0E004C0880FC5
:10089000991FAA1FBB1F2A95D2F70197A109B10979
:1008A0008E219F21A023B1230097A105B10521F03E
:1008B00081E090E0A0E0B0E09A01AB01282B392B59
:1008C0004A2B5B2BDA01C9018F779070A070B07052
:1008D00080349105A105B10539F427FF09C0205CDA
:1008E0003F4F4F4F5F4F04C0215C3F4F4F4F5F4F13
:1008F000E0E0F0E02030A0E03A07A0E04A07A0E402
:100900005A0710F0E1E0F0E079018A0127C0603871
:10091000710564F5FB01E158FF4FD801C7018F77DE
:100920009070A070B07080349105A105B10539F4C4
:10093000E7FE0DC080E490E0A0E0B0E004C08FE3EB
:1009400090E0A0E0B0E0E80EF91E0A1F1B1F17FFA1
:1009500005C016950795F794E794319687E01695AC
:100960000795F794E7948A95D1F705C0EE24FF2404
:100970008701EFEFF0E06E2F679566276795902F60
:100980009F77D794DD24D7948E2F8695492F462BB9
:10099000582F5D29B701CA011F910F91FF90EF9069
:1009A000DF900895FC01DB01408151812281622F9B
:1009B0006F7770E0221F2227221F9381892F880FD3
:1009C000822B282F30E0991F9927991F11969C930D
:1009D000119721153105A9F54115510561057105DD
:1009E00011F482E037C082E89FEF13969C938E93B8
:1009F00012979A01AB0167E0220F331F441F551F66
:100A00006A95D1F783E08C930DC0220F331F441FEA
:100A1000551F12968D919C911397019713969C9355
:100A20008E931297203080E0380780E0480780E4FA
:100A3000580758F314962D933D934D935C93179755
:100A400008952F3F310579F4411551056105710570
:100A500019F484E08C93089564FF03C081E08C93C3
:100A600012C01C9210C02F57304013963C932E9307
:100A7000129783E08C9387E0440F551F661F771F02
:100A80008A95D1F7706414964D935D936D937C9322
:100A9000179708951F93DC01FB019C91923008F495
:100AA00047C08081823008F443C0943051F41196DD
:100AB0001C91843099F58181682F70E0611B710968
:100AC0003FC0843021F0923031F48230B9F181811D
:100AD000882389F12DC011961C9111978230F1F075
:100AE00081811817D9F412962D913C911397828128
:100AF00093818217930794F028173907BCF0149656
:100B00008D919D910D90BC91A02D248135814681C0
:100B10005781281739074A075B0718F4112341F05A
:100B20000AC082179307A407B50740F4112319F0F0
:100B300061E070E005C06FEF7FEF02C060E070E041
:100B4000CB011F910895DF93CF9300D000D0CDB794
:100B5000DEB79C838B830E94B21B8B819C810E9499
:100B6000072A9A8389830E94BE1B89819A810F90EC
:100B70000F900F900F90CF91DF910895DF93CF9357
:100B800000D0CDB7DEB79A83898389819A81009797
:100B900041F00E94B21B89819A810E94B42A0E946E
:100BA000BE1B0F900F90CF91DF910895DF93CF93ED
:100BB000CDB7DEB728970FB6F894DEBF0FBECDBF16
:100BC0009C838B837E836D8358874F83EB81FC816D
:100BD00081E180838B819C8101979C838B83EB8156
:100BE000FC8182E280838B819C8101979C838B8333
:100BF000EB81FC8183E380838B819C8101979C83C3
:100C00008B838D819E819A8389838981EB81FC818D
:100C100080838B819C8101979C838B8389819A81BE
:100C2000892F99279A8389838981EB81FC8180832D
:100C30008B819C8101979C838B83EB81FC8110824B
:100C40008B819C8101979C838B83EB81FC8180E865
:100C500080838B819C8101979C838B83EB81FC81BA
:100C600010828B819C8101979C838B83EB81FC811B
:100C700082E080838B819C8101979C838B83EB81B5
:100C8000FC8183E080838B819C8101979C838B8393
:100C9000EB81FC8184E080838B819C8101979C8324
:100CA0008B83EB81FC8185E080838B819C81019724
:100CB0009C838B83EB81FC8186E080838B819C818C
:100CC00001979C838B83EB81FC8187E080838B8100
:100CD0009C8101979C838B83EB81FC8188E08083DE
:100CE0008B819C8101979C838B83EB81FC8189E0C4
:100CF00080838B819C8101979C838B83EB81FC811A
:100D000080E180838B819C8101979C838B83EB8125
:100D1000FC8181E180838B819C8101979C838B8303
:100D2000EB81FC8182E180838B819C8101979C8394
:100D30008B83EB81FC8183E180838B819C81019794
:100D40009C838B83EB81FC8184E180838B819C81FC
:100D500001979C838B83EB81FC8185E180838B8170
:100D60009C8101979C838B83EB81FC8186E180834E
:100D70008B819C8101979C838B83EB81FC8187E134
:100D800080838B819C8101979C838B83EB81FC8189
:100D900088E180838B819C8101979C838B83EB818D
:100DA000FC8189E180838B819C8101979C838B836B
:100DB000EB81FC8180E280838B819C8101979C8305
:100DC0008B83EB81FC8181E280838B819C81019705
:100DD0009C838B83EB81FC8182E280838B819C816D
:100DE00001979C838B83EB81FC8183E280838B81E1
:100DF0009C8101979C838B838F8198859A838983BB
:100E00008981EB81FC8180838B819C8101979C830C
:100E10008B8389819A81892F99279A8389838981F4
:100E2000EB81FC8180838B819C8101979C838B83E8
:100E3000EB81FC8186E280838B819C8101979C837E
:100E40008B83EB81FC8187E280838B819C8101977E
:100E50009C838B83EB81FC8188E280838B819C81E6
:100E600001979C838B83EB81FC8189E280838B815A
:100E70009C8101979C838B83EB81FC8180E3808341
:100E80008B819C8101979C838B83EB81FC8181E327
:100E900080838B819C8101979C838B838B819C8138
:100EA00028960FB6F894DEBF0FBECDBFCF91DF916D
:100EB0000895DF93CF93CDB7DEB70E944B08A09182
:100EC000C400B091C500CD91CDBFDD91DEBFFF91D3
:100ED000EF91DF91CF91BF91AF919F918F917F91D2
:100EE0006F915F914F913F912F911F910F91FF90C3
:100EF000EF90DF90CF90BF90AF909F908F907F90BA
:100F00006F905F904F903F902F901F900F900FBE6B
:100F10000F90089581E0CF91DF910895DF93CF93F3
:100F2000CDB7DEB7CF91DF9108950F920FB6F89449
:100F30000F921F9211242F923F924F925F926F92C5
:100F40007F928F929F92AF92BF92CF92DF92EF9259
:100F5000FF920F931F932F933F934F935F936F9342
:100F60007F938F939F93AF93BF93CF93DF93EF9331
:100F7000FF93A091C400B091C5000DB60D920EB6BE
:100F80000D920E94C31DA091C400B091C500CD91E7
:100F9000CDBFDD91DEBFFF91EF91DF91CF91BF918A
:100FA000AF919F918F917F916F915F914F913F9101
:100FB0002F911F910F91FF90EF90DF90CF90BF90F6
:100FC000AF909F908F907F906F905F904F903F90E9
:100FD0002F901F900F900FBE0F9008950F920FB695
:100FE000F8940F921F9211242F923F924F925F928A
:100FF0006F927F928F929F92AF92BF92CF92DF9229
:10100000EF92FF920F931F932F933F934F935F9312
:101010006F937F938F939F93AF93BF93CF93DF9300
:10102000EF93FF93A091C400B091C5000DB60D924F
:101030000EB60D920E94DA1C882311F00E94C31D87
:10104000A091C400B091C500CD91CDBFDD91DEBFB0
:10105000FF91EF91DF91CF91BF91AF919F918F91D0
:101060007F916F915F914F913F912F911F910F91C0
:10107000FF90EF90DF90CF90BF90AF909F908F90B8
:101080007F906F905F904F903F902F901F900F90A8
:101090000FBE0F900895DF93CF9300D000D000D003
:1010A000CDB7DEB780E49FE1A0E0B0E08B839C8306
:1010B000AD83BE838B819C81AD81BE81689415F820
:1010C000B695A795979587951694D1F78B839C83B2
:1010D000AD83BE838B819C81AD81BE810197A109C7
:1010E000B1098B839C83AD83BE838B8189838B8184
:1010F0009C81AD81BE81892F9A2FAB2FBB278B831B
:101100009C83AD83BE838B818A83EBE4F0E08A818C
:101110008083EAE4F0E0898180838BE08983EEE4D8
:10112000F0E089818083E9E5F0E08081898389812D
:1011300080618983E9E5F0E08981808326960FB696
:10114000F894DEBF0FBECDBFCF91DF9108950E940E
:10115000EE071895DF93CF93CDB7DEB727970FB67D
:10116000F894DEBF0FBECDBF9D838C836E834F830B
:101170008AE190E00E94A3059A83898389819A81FC
:10118000009709F46FC080918A0090918B000097BE
:1011900041F489819A8190938B0080938A000E9408
:1011A000110B8E81823010F081E08E83E981FA810B
:1011B000118E108EE981FA818E81868BE981FA8108
:1011C0008F81878BE981FA818C819D8191838083D6
:1011D00089819A8102960E94F10E89819A810C96EA
:1011E0000E94F10EE981FA8189819A819187808735
:1011F000E981FA8189819A81938B828B8E81282F54
:1012000030E082E090E0821B930BE981FA819587C0
:101210008487E981FA81968980918C00891728F466
:10122000E981FA81868980938C00E981FA81868937
:10123000282F30E0C901880F991F880F991F880F48
:10124000991F820F931FAC014D565F4F89819A8180
:101250009C012E5F3F4FCA01B9010E94010F81E03E
:101260008B8302C08FEF8B838B8127960FB6F89408
:10127000DEBF0FBECDBFCF91DF910895DF93CF9337
:1012800000D000D000D0CDB7DEB79C838B837E83A7
:101290006D8320918D0030918E008B819C81820F17
:1012A000931F9A83898380918A0090918B00029684
:1012B0000E94B10FE0918A00F0918B0089819A81A0
:1012C0009383828320918D0030918E0089819A8151
:1012D0008217930770F48091B9009091BA00209121
:1012E0008A0030918B002E5F3F4FB9010E94450F5D
:1012F0000DC08091B7009091B80020918A00309184
:101300008B002E5F3F4FB9010E94450F8D819E815A
:10131000009761F080918A0090918B009C01245F7E
:101320003F4F8D819E81B9010E94450F26960FB6D1
:10133000F894DEBF0FBECDBFCF91DF910895DF934C
:10134000CF9300D0CDB7DEB73AC0F894E091C0009B
:10135000F091C100868197819A83898389819A81DE
:101360000C960E94B10F789489819A8102960E940E
:10137000B10FE981FA81968980918C00891728F450
:10138000E981FA81868980938C00E981FA818689D6
:10139000282F30E0C901880F991F880F991F880FE7
:1013A000991F820F931FAC014D565F4F89819A811F
:1013B0009C012E5F3F4FCA01B9010E94010F80912D
:1013C000BB00882309F0C1CF0F900F90CF91DF9120
:1013D0000895DF93CF9300D000D0CDB7DEB70E9441
:1013E0005C1C20918F0030919000821B930B909396
:1013F00092008093910085C080918D0090918E0025
:10140000019690938E0080938D0080919100909131
:1014100092000197909392008093910080918D00AB
:1014200090918E00009709F064C08091B700909170
:10143000B8009A8389838091B9009091BA00909303
:10144000B8008093B70089819A819093BA00809305
:10145000B9004FC0E091B700F091B8000580F68167
:10146000E02D868197819C838B83EB81FC81228197
:10147000338180918D0090918E008217930708F43C
:1014800040C0F8948B819C8102960E94B10FEB8141
:10149000FC8184899589009729F08B819C810C9629
:1014A0000E94B10F7894EB81FC81968980918C0029
:1014B000891728F4EB81FC81868980938C00EB816D
:1014C000FC818689282F30E0C901880F991F880F79
:1014D000991F880F991F820F931FAC014D565F4FC4
:1014E0008B819C819C012E5F3F4FCA01B9010E94F4
:1014F000010FE091B700F091B8008081882309F0D6
:10150000A9CF8091910090919200009709F074CF3B
:1015100080918D0090918E009093900080938F0029
:101520000F900F900F900F90CF91DF910895DF9360
:10153000CF9300D0CDB7DEB70E949F090E94E90982
:101540000AC080918C00882309F466C080918C00C9
:10155000815080938C0080918C00282F30E0C9014D
:10156000880F991F880F991F880F991F820F931F4B
:10157000FC01ED56FF4F8081882319F380918C0088
:10158000282F30E0C901880F991F880F991F880FF5
:10159000991F820F931F8D569F4F9A838983E981EC
:1015A000FA810180F281E02D82819381E981FA81C3
:1015B00092838183E981FA812181328189819A81B3
:1015C00003962817390759F4E981FA810180F281DD
:1015D000E02D82819381E981FA8192838183E9817F
:1015E000FA810180F281E02D8681978190938B00B2
:1015F00080938A00E0918A00F0918B0040815181B4
:1016000080918A0090918B00E0918A00F0918B008C
:101610002789622FFA0109950F900F90CF91DF91E2
:101620000895DF93CF930F92CDB7DEB7198213C021
:101630008981282F30E0C901880F991F880F991FD1
:10164000880F991F820F931F8D569F4F0E94C70EC0
:1016500089818F5F89838981823050F385EA90E0A8
:101660000E94C70E8EEA90E00E94C70E8BEB90E0BE
:101670000E94C70E85EA90E09093B8008093B7006F
:101680008EEA90E09093BA008093B9000F90CF91CA
:10169000DF910895DF93CF9300D000D00F92CDB7A4
:1016A000DEB79D838C83EC81FD810580F681E02D82
:1016B000868197819B838A838A819B810C960E9475
:1016C000B10F8A819B819C01245F3F4F8BEB90E09F
:1016D000B9010E94010FEA81FB819689E0918A009D
:1016E000F0918B008689981718F081E0898301C0FA
:1016F000198289810F900F900F900F900F90CF91CA
:10170000DF910895DF93CF9300D0CDB7DEB78BE0A4
:1017100090E00E94A3059A83898389819A8100972A
:1017200049F0E981FA811182108289819A810296B9
:101730000E94C70E89819A810F900F90CF91DF91FF
:101740000895DF93CF93CDB7DEB760970FB6F894C7
:10175000DEBF0FBECDBF9A8789877C876B875E8788
:101760004D87388B2F8789859A859C838B83198237
:101770000E94B21BEB81FC818081918198878F83CD
:1017800089859A852B853C85B9010E94780D2F812A
:1017900038858B859C85282B392B8D859E85282324
:1017A00039238D859E8528173907C9F42F813885FF
:1017B0008B859C85822B932B9E838D83EB81FC8173
:1017C000208131818D859E858095909582239323FC
:1017D000EB81FC8191838083188A1F861EC08F85D0
:1017E0009889009791F08B819C81BC016E5F7F4F3F
:1017F0008D859E859C0135604F855889CB01B90147
:101800000E94521E1E821D8208C0EB81FC818081D5
:1018100091819E838D8381E089830E94BE1B8A8390
:101820008F859889009709F43AC08A81882311F43A
:101830000E9495070E94AB209E838D838D819E819F
:1018400080709270009731F50FB6F8940F92EB818B
:10185000FC81808191819E838D832D813E818D8548
:101860009E85282339238D859E852817390771F495
:10187000EB81FC81208131818D859E8580959095BD
:1018800082239323EB81FC81918380830F900FBE91
:1018900081E089838D819E8190709E838D838D816F
:1018A0009E8160960FB6F894DEBF0FBECDBFCF917C
:1018B000DF9108950F931F93DF93CF93CDB7DEB7DA
:1018C00063970FB6F894DEBF0FBECDBF9D878C87A0
:1018D0007F876E87488B298B1B8B0A8B8C859D8518
:1018E0009B878A871F821E821B820E94B21BEA8509
:1018F000FB85808191819A83898389819A812E8554
:101900003F85B90149890E94950E8D838D81882379
:10191000C1F089819A81998788871B8A1A8A888968
:101920008823E9F1EA85FB85208131818E859F85B9
:101930008095909582239323EA85FB85918380830C
:101940002EC08A899B89009739F489819A81998769
:10195000888781E08B8323C08889882329F08E8142
:101960009F8191609F838E838989882329F08E814E
:101970009F8194609F838E838A859B85BC016E5F67
:101980007F4F2E853F858E819F81282B392B4A8959
:101990005B89CB01B9010E94521E198618860E94EC
:1019A000BE1B8C838A899B89009709F43CC08C817B
:1019B000882311F40E9495070E94AB20998788879D
:1019C0008885998580709270009741F50FB6F894DC
:1019D0000F92EA85FB858081918199878887888528
:1019E00099852E853F85B90149890E94950E8823E6
:1019F00089F08889882371F0EA85FB85208131810F
:101A00008E859F858095909582239323EA85FB851B
:101A10009183808381E08B830F900FBE88859985A9
:101A20009070998788878885998563960FB6F89412
:101A3000DEBF0FBECDBFCF91DF911F910F910895F3
:101A4000DF93CF93CDB7DEB728970FB6F894DEBFFC
:101A50000FBECDBF9E838D8378876F838D819E81DE
:101A60009C838B830FB6F8940F92EB81FC8180816D
:101A700091819A838983EB81FC81208131818F81DF
:101A800098858095909582239323EB81FC819183A7
:101A900080830F900FBE89819A8128960FB6F894A3
:101AA000DEBF0FBECDBFCF91DF910895DF93CF93FF
:101AB000CDB7DEB727970FB6F894DEBF0FBECDBF08
:101AC0009F838E838E819F819C838B831D82EB817C
:101AD000FC81808191819A83898389819A8127966B
:101AE0000FB6F894DEBF0FBECDBFCF91DF91089542
:101AF000DF93CF93CDB7DEB765970FB6F894DEBF0F
:101B00000FBECDBF9B8B8A8B7D8B6C8B1986188605
:101B10008A899B899B838A8319828A819B81029609
:101B20009B878A878A859B8503969D878C870E94E1
:101B3000B21BEA85FB8585819681998B888BEA812A
:101B4000FB81208131818C899D89822B932BEA81B5
:101B5000FB819183808359C0E889F98982819381CF
:101B60009F878E87E889F989808191819F838E8301
:101B700019828E819F8180709D838C838E819F814D
:101B800090709F838E838C819D818070947000976C
:101B900069F4EA81FB81208131818E819F818223DA
:101BA0009323009791F081E089830FC0EA81FB8144
:101BB000208131818E819F81282339238E819F81CD
:101BC0002817390711F481E0898389818823C9F0B6
:101BD0008C819D8180709170009741F088859985F6
:101BE0002E813F81822B932B99878887EA81FB8105
:101BF000808191819C01326088899989B9010E9414
:101C0000ED1E8E859F85998B888B288939898C85D7
:101C10009D852817390709F09FCFEA81FB81208134
:101C20003181888599858095909582239323EA81D7
:101C3000FB81918380830E94BE1BEA81FB818081AE
:101C4000918165960FB6F894DEBF0FBECDBFCF91E0
:101C5000DF910895DF93CF9300D000D000D0CDB7AF
:101C6000DEB79E838D838D819E819C838B838B8148
:101C70009C8102969A8389830E94B21B08C0E981E5
:101C8000FA818581968160E072E00E94ED1EE98113
:101C9000FA818081882399F78B819C810E94BE05FF
:101CA0000E94BE1B26960FB6F894DEBF0FBECDBFB6
:101CB000CF91DF910895DF93CF9300D000D000D073
:101CC000CDB7DEB79A8389834B835C836D837E8334
:101CD00089819A812B813C81B9010E94780D2696D9
:101CE0000FB6F894DEBF0FBECDBFCF91DF91089540
:101CF000DF93CF9300D000D000D0CDB7DEB79A836A
:101D000089834B835C836D837E8389819A812B8158
:101D10003C81B9010E94200D26960FB6F894DEBFD3
:101D20000FBECDBFCF91DF910895DF93CF9300D049
:101D300000D000D0CDB7DEB79B838A837D836C83D0
:101D40004E8319828E81882359F48A819B812C814C
:101D50003D8182239323009781F081E089830DC028
:101D60002A813B818C819D81282339238C819D810F
:101D70002817390711F481E08983898126960FB6E7
:101D8000F894DEBF0FBECDBFCF91DF910895DF93F2
:101D9000CF9300D0CDB7DEB79A83898389819A81AA
:101DA0000396E981FA8192838183E981FA818FEF39
:101DB0009FEF9483838389819A810396E981FA81D5
:101DC0009683858389819A810396E981FA81908738
:101DD0008783E981FA8110820F900F90CF91DF9174
:101DE0000895DF93CF9300D0CDB7DEB79A83898370
:101DF000E981FA81118610860F900F90CF91DF91C3
:101E00000895DF93CF9300D000D000D0CDB7DEB7D8
:101E10009C838B837E836D83EB81FC8181819281A6
:101E20009A838983ED81FE8189819A81938382835C
:101E3000E981FA8184819581ED81FE819583848396
:101E4000E981FA810480F581E02D8D819E81938363
:101E50008283E981FA818D819E8195838483ED81DE
:101E6000FE818B819C8191878087EB81FC818081C1
:101E70008F5FEB81FC81808326960FB6F894DEBFDE
:101E80000FBECDBFCF91DF910895DF93CF93CDB734
:101E9000DEB728970FB6F894DEBF0FBECDBF9E8386
:101EA0008D8378876F83EF81F885808191819A8314
:101EB000898389819A812FEF8F3F920739F4ED81D1
:101EC000FE81878190859C838B8318C08D819E8144
:101ED00003969C838B8306C0EB81FC818281938176
:101EE0009C838B83EB81FC810280F381E02D208138
:101EF000318189819A818217930770F7EB81FC8188
:101F000082819381EF81F88593838283EF81F885C5
:101F10000280F381E02D8F81988595838483EF8102
:101F2000F8858B819C8195838483EB81FC818F81F3
:101F3000988593838283EF81F8858D819E81918737
:101F40008087ED81FE8180818F5FED81FE818083BE
:101F500028960FB6F894DEBF0FBECDBFCF91DF91AC
:101F60000895DF93CF9300D000D0CDB7DEB79C8328
:101F70008B83EB81FC81808591859A838983EB81BA
:101F8000FC81A281B381EB81FC81848195811596CE
:101F90009C938E931497EB81FC81A481B581EB8196
:101FA000FC818281938113969C938E931297E98191
:101FB000FA81218132818B819C812817390741F474
:101FC000EB81FC8184819581E981FA81928381830F
:101FD000EB81FC8111861086E981FA818081815034
:101FE000E981FA818083E981FA8180810F900F90E5
:101FF0000F900F90CF91DF910895DF93CF9300D092
:1020000000D00F92CDB7DEB79C838B836D838B811D
:102010009C819A8389830FB6F8940F92E981FA81A3
:1020200040815181E981FA81838D282F30E0E98157
:10203000FA81848D882F90E0BC01269FC001279FE4
:10204000900D369F900D1124840F951FE981FA8120
:1020500095838483E981FA81128EE981FA818081F6
:102060009181E981FA8193838283E981FA814081B8
:102070005181E981FA81838D882F90E09C01215064
:102080003040E981FA81848D882F90E0BC01269F41
:10209000C001279F900D369F900D1124840F951F2E
:1020A000E981FA8197838683E981FA818FEF858FB1
:1020B000E981FA818FEF868F8D81882379F4E98118
:1020C000FA8180858823A1F089819A8108960E94EF
:1020D000821E882369F00E9495070AC089819A812F
:1020E00008960E94C70E89819A8141960E94C70E68
:1020F0000F900FBE81E00F900F900F900F900F90F8
:10210000CF91DF9108950F931F93DF93CF93CDB7B6
:10211000DEB729970FB6F894DEBF0FBECDBF8F8311
:10212000688749878F81282F30E08885882F90E045
:10213000AC01249FC001259F900D349F900D112468
:102140009C838B838B819C814F960E94A3059E83E9
:102150008D838D819E810097A1F08D819E819A83D0
:10216000898389819A814F969A83898329813A81CB
:10217000ED81FE818F816885A90129858F010E94EB
:10218000CE108D819E8129960FB6F894DEBF0FBECA
:10219000CDBFCF91DF911F910F9108950F931F93A2
:1021A000DF93CF93CDB7DEB727970FB6F894DEBF96
:1021B0000FBECDBF89836A835C834B832D831F83CE
:1021C0000E838A81882339F48E819F81EE81FF817D
:1021D0009183808306C08B819C81EE81FF819183F6
:1021E0008083EE81FF818981838FEE81FF818A81E7
:1021F000848F8E819F8161E00E94FD0F27960FB62C
:10220000F894DEBF0FBECDBFCF91DF911F910F912C
:102210000895DF93CF93CDB7DEB72F970FB6F8941D
:10222000DEBF0FBECDBF998788877B876A875D87B2
:102230004C872E871C82888599859A8389830FB65F
:10224000F8940F92E981FA81928DE981FA81838D68
:10225000981718F08E85823011F589819A812A8528
:102260003B85B9014E850E945F158B83E981FA8118
:102270008189882351F089819A8141960E94821E2A
:10228000882341F00E94950705C08B81882311F0B7
:102290000E9495070F900FBE81E08F875CC08C85F0
:1022A0009D85009721F40F900FBE1F8654C08C812E
:1022B000882331F4CE0105960E94681F81E08C834B
:1022C0000F900FBE0E94B21B0FB6F8940F92E981D7
:1022D000FA81858D8F3F19F4E981FA81158EE981A4
:1022E000FA81868D8F3F19F4E981FA81168E0F905D
:1022F0000FBECE0105969E01245F3F4FB9010E949B
:10230000811F882309F589819A810E94DB16882321
:10231000A1F089819A8108962C853D85B9010E949A
:10232000301E89819A810E944C160E94BE1B882310
:1023300009F085CF0E94950782CF89819A810E94FA
:102340004C160E94BE1B7BCF89819A810E944C163D
:102350000E94BE1B1F868F852F960FB6F894DEBF96
:102360000FBECDBFCF91DF910895DF93CF93CDB74F
:10237000DEB72D970FB6F894DEBF0FBECDBF98879E
:102380008F837A8769875C874B872D878F819885B4
:102390009C838B831D82EB81FC81928DEB81FC8180
:1023A000838D981718F08D85823081F5EB81FC8143
:1023B000868D8A83EB81FC81828D89838B819C81D0
:1023C00029853A85B9014D850E945F158A818F3F25
:1023D000A9F4EB81FC8181898823A9F08B819C8100
:1023E00041960E94821E882371F08B859C85009700
:1023F00051F0EB85FC8581E0808305C08A818F5F89
:10240000EB81FC81868F81E08E8301C01E828E81EC
:102410002D960FB6F894DEBF0FBECDBFCF91DF91E2
:102420000895DF93CF93CDB7DEB72A970FB6F89410
:10243000DEBF0FBECDBF98878F837A8769878F8174
:1024400098859C838B831D82EB81FC81828D8A839E
:10245000EB81FC81938D8A81891748F5EB81FC81A2
:10246000868D89838A818F5FEB81FC81828F898150
:102470008F3FA9F4EB81FC8181898823A9F08B81AE
:102480009C8141960E94821E882371F089859A85DD
:10249000009751F0E985FA8581E0808305C0898144
:1024A0008F5FEB81FC81868F81E08E8301C01E826D
:1024B0008E812A960FB6F894DEBF0FBECDBFCF91A6
:1024C000DF910895DF93CF93CDB7DEB72E970FB688
:1024D000F894DEBF0FBECDBF998788877B876A8758
:1024E0005D874C871C82888599859B838A830FB67C
:1024F000F8940F92EA81FB81828D898389818823F8
:10250000F9F08A819B812A853B85B9010E940516D5
:1025100089818150EA81FB81828FEA81FB818085FC
:10252000882349F08A819B8108960E94821E882315
:1025300011F00E9495070F900FBE81E08E8763C057
:102540008C859D85009721F40F900FBE1E865BC081
:102550008C81882331F4CE0105960E94681F81E0AA
:102560008C830F900FBE0E94B21B0FB6F8940F928F
:10257000EA81FB81858D8F3F19F4EA81FB81158EFD
:10258000EA81FB81868D8F3F19F4EA81FB81168EEB
:102590000F900FBECE0105969E01245F3F4FB901FB
:1025A0000E94811F882309F58A819B810E949F16C2
:1025B0008823A1F08A819B8141962C853D85B901B4
:1025C0000E94301E8A819B810E944C160E94BE1B75
:1025D000882309F08CCF0E94950789CF8A819B813F
:1025E0000E944C160E94BE1B82CF8A819B810E9452
:1025F0004C160E94BE1B8A819B810E949F168823D5
:1026000009F475CF1E868E852E960FB6F894DEBF20
:102610000FBECDBFCF91DF910895DF93CF93CDB79C
:10262000DEB72C970FB6F894DEBF0FBECDBF9987EB
:1026300088877B876A871C82888599859B838A83A4
:102640000FB6F8940F92EA81FB81828D898389818C
:102650008823C1F089818150EA81FB81828FEA81E0
:10266000FB818085882349F08A819B8108960E949E
:10267000821E882311F00E9495070F900FBE81E003
:102680008C8763C08A859B85009721F40F900FBECD
:102690001C865BC08C81882331F4CE0105960E9494
:1026A000681F81E08C830F900FBE0E94B21B0FB693
:1026B000F8940F92EA81FB81858D8F3F19F4EA81AE
:1026C000FB81158EEA81FB81868D8F3F19F4EA81AB
:1026D000FB81168E0F900FBECE0105969E01265FE0
:1026E0003F4FB9010E94811F882309F58A819B8190
:1026F0000E949F168823A1F08A819B8141962A859A
:102700003B85B9010E94301E8A819B810E944C1634
:102710000E94BE1B882309F093CF0E94950790CF9B
:102720008A819B810E944C160E94BE1B89CF8A81A0
:102730009B810E944C160E94BE1B8A819B810E9435
:102740009F16882309F47CCF1C868C852C960FB6A7
:10275000F894DEBF0FBECDBFCF91DF910895DF9318
:10276000CF93CDB7DEB760970FB6F894DEBF0FBE3C
:10277000CDBF9B878A877D876C875F874E871E8248
:102780008A859B859B838A830FB6F8940F92EA8192
:10279000FB81828D89838981882331F1EA81FB81E4
:1027A000868197819D838C838A819B812C853D8541
:1027B000B9010E940516EA81FB818C819D81978376
:1027C0008683EA81FB818189882349F08A819B8104
:1027D00041960E94821E882311F00E9495070F9057
:1027E0000FBE81E0888B63C08E859F85009721F4A2
:1027F0000F900FBE188A5BC08E81882331F4CE0102
:1028000007960E94681F81E08E830F900FBE0E9482
:10281000B21B0FB6F8940F92EA81FB81858D8F3F32
:1028200019F4EA81FB81158EEA81FB81868D8F3F49
:1028300019F4EA81FB81168E0F900FBECE01079628
:102840009E01225F3F4FB9010E94811F882309F535
:102850008A819B810E949F168823A1F08A819B8197
:1028600041962E853F85B9010E94301E8A819B8149
:102870000E944C160E94BE1B882309F085CF0E943F
:10288000950782CF8A819B810E944C160E94BE1BB5
:102890007BCF8A819B810E944C160E94BE1B8A813D
:1028A0009B810E949F16882309F46ECF188A88891D
:1028B00060960FB6F894DEBF0FBECDBFCF91DF910B
:1028C0000895DF93CF93CDB7DEB72C970FB6F8946A
:1028D000DEBF0FBECDBF98878F837A8769875C87FD
:1028E0004B878F8198859C838B831D82EB81FC8134
:1028F000828D8A838A81882381F1EB81FC81858D99
:1029000089838B819C8129853A85B9010E940516AE
:102910008A818150EB81FC81828F89818F3FA9F46C
:10292000EB81FC8180858823A9F08B819C810896AE
:102930000E94821E882371F08B859C85009751F040
:10294000EB85FC8581E0808305C089818F5FEB8109
:10295000FC81858F81E08E8301C01E828E812C9642
:102960000FB6F894DEBF0FBECDBFCF91DF910895B3
:10297000DF93CF93CDB7DEB72A970FB6F894DEBFBB
:102980000FBECDBF98878F837A8769878F8198859F
:102990009A8389831D82E981FA81828D8823B1F02F
:1029A000E981FA81868197819C838B8389819A81D1
:1029B00029853A85B9010E940516E981FA818B8142
:1029C0009C819783868381E08E8301C01E828E81E5
:1029D0002A960FB6F894DEBF0FBECDBFCF91DF9120
:1029E0000895DF93CF9300D00F92CDB7DEB79B83CE
:1029F0008A830FB6F8940F92EA81FB81828D8983D6
:102A00000F900FBE89810F900F900F90CF91DF91A3
:102A10000895DF93CF9300D000D00F92CDB7DEB7EB
:102A20009D838C838C819D819A8389830FB6F894D2
:102A30000F92E981FA81938DE981FA81828D292FA4
:102A4000281B822F8B830F900FBE8B810F900F90CE
:102A50000F900F900F90CF91DF910895DF93CF9358
:102A600000D000D00F92CDB7DEB79D838C838C81D0
:102A70009D819A838983E981FA81828D8B838B8101
:102A80000F900F900F900F900F90CF91DF910895BE
:102A9000DF93CF9300D000D0CDB7DEB79C838B837C
:102AA0008B819C819A83898389819A810E94BE054A
:102AB0000F900F900F900F90CF91DF910895DF93BB
:102AC000CF93CDB7DEB727970FB6F894DEBF0FBE12
:102AD000CDBF9C838B837E836D834F831A82EB8172
:102AE000FC81828D8983EB81FC81848D882309F4AC
:102AF0007DC08F81882399F5EB81FC816281738190
:102B0000EB81FC81848D482F50E02D813E81CB01EB
:102B1000B9010E940C2BEB81FC8122813381EB8176
:102B2000FC81848D882F90E0820F931FEB81FC81C4
:102B300093838283EB81FC8122813381EB81FC8151
:102B4000848195812817390708F450C0EB81FC81F6
:102B500080819181EB81FC819383828347C0EB81EB
:102B6000FC8166817781EB81FC81848D482F50E068
:102B70002D813E81CB01B9010E940C2BEB81FC81A0
:102B800026813781EB81FC81848D882F90E09095A0
:102B900081959F4F820F931FEB81FC8197838683E2
:102BA000EB81FC8126813781EB81FC8180819181E1
:102BB0002817390790F4EB81FC8124813581EB8162
:102BC000FC81848D882F90E0909581959F4F820F96
:102BD000931FEB81FC81978386838F81823031F450
:102BE0008981882319F089818150898389818F5F48
:102BF000EB81FC81828F8A8127960FB6F894DEBF25
:102C00000FBECDBFCF91DF910895DF93CF9300D05A
:102C100000D0CDB7DEB79A8389837C836B83E9814B
:102C2000FA81848D882389F1E981FA8126813781AF
:102C3000E981FA81848D882F90E0820F931FE981CA
:102C4000FA8197838683E981FA8126813781E98138
:102C5000FA81848195812817390740F0E981FA814A
:102C600080819181E981FA8197838683E981FA8164
:102C700046815781E981FA81848D282F30E08B814C
:102C80009C81BA01A9010E940C2B0F900F900F900C
:102C90000F90CF91DF910895DF93CF9300D000D0B4
:102CA000CDB7DEB79C838B830FB6F8940F92EB8180
:102CB000FC81868D8A8311C0EB81FC818189882308
:102CC00079F08B819C8141960E94821E882311F0AD
:102CD0000E94E41F8A8181508A838A81181664F3D6
:102CE000EB81FC818FEF868F0F900FBE0FB6F894AB
:102CF0000F92EB81FC81858D898311C0EB81FC8172
:102D00008085882379F08B819C8108960E94821EA1
:102D1000882311F00E94E41F898181508983898171
:102D2000181664F3EB81FC818FEF858F0F900FBE37
:102D30000F900F900F900F90CF91DF910895DF9338
:102D4000CF9300D00F92CDB7DEB79B838A830FB6A7
:102D5000F8940F92EA81FB81828D882319F481E037
:102D6000898301C019820F900FBE89810F900F9047
:102D70000F90CF91DF910895DF93CF9300D000D0D3
:102D80000F92CDB7DEB79D838C838C819D819A8312
:102D90008983E981FA81828D882319F481E08B830C
:102DA00001C01B828B810F900F900F900F900F909E
:102DB000CF91DF910895DF93CF9300D00F92CDB7DD
:102DC000DEB79B838A830FB6F8940F92EA81FB816A
:102DD000928DEA81FB81838D981719F481E08983B4
:102DE00001C019820F900FBE89810F900F900F9034
:102DF000CF91DF910895DF93CF9300D000D00F9251
:102E0000CDB7DEB79D838C838C819D819A83898326
:102E1000E981FA81928DE981FA81838D981719F4FD
:102E200081E08B8301C01B828B810F900F900F90EC
:102E30000F900F90CF91DF910895DF93CF93CDB78F
:102E4000DEB72A970FB6F894DEBF0FBECDBF9D83C5
:102E50008C837F836E83598748878C819D819A8379
:102E60008983F89489819A810E94DB168823A9F0CE
:102E700088859985009771F089819A819C01285FE6
:102E80003F4F88859985B9010E943E0978948CEF5F
:102E90008A872AC078941A8627C07894F894E981A2
:102EA000FA81928DE981FA81838D9817C8F489811E
:102EB0009A812E813F81B90140E00E945F1581E037
:102EC0008B83E981FA818189882359F089819A81EC
:102ED00041960E944A0B882321F08BEF8B8301C01F
:102EE0001B8278948B818A878A852A960FB6F894FC
:102EF000DEBF0FBECDBFCF91DF910895DF93CF939B
:102F0000CDB7DEB72A970FB6F894DEBF0FBECDBFA0
:102F10009D838C837F836E83598748878C819D81B5
:102F20009A838983F894E981FA81828D8823A9F4B0
:102F300088859985009771F089819A819C012F5E1F
:102F40003F4F88859985B9010E943E0978948CEF9E
:102F50008A8758C078941A8655C07894F894E98185
:102F6000FA81828D882309F449C0E981FA8126819A
:102F70003781E981FA81848D882F90E0820F931F39
:102F8000E981FA8197838683E981FA8126813781F5
:102F9000E981FA81848195812817390740F0E98118
:102FA000FA8180819181E981FA8197838683E98121
:102FB000FA81828D8150E981FA81828FE981FA81DB
:102FC00046815781E981FA81848D282F30E08E81F6
:102FD0009F81BA01A9010E940C2B81E08B83E981BA
:102FE000FA818085882359F089819A8108960E9408
:102FF0004A0B882321F08BEF8B8301C01B827894CE
:103000008B818A878A852A960FB6F894DEBF0FBE19
:10301000CDBFCF91DF910895DF93CF93CDB7DEB7CA
:1030200028970FB6F894DEBF0FBECDBF9C838B836D
:103030007E836D834F838B819C819A838983E98111
:10304000FA81928DE981FA81838D9817D0F4898174
:103050009A812D813E81B90140E00E945F158F81E8
:10306000882379F4E981FA818189882351F0898163
:103070009A8141960E944A0B882319F081E0888743
:1030800002C08F818887888528960FB6F894DEBFA6
:103090000FBECDBFCF91DF910895DF93CF93CDB712
:1030A000DEB729970FB6F894DEBF0FBECDBF9D8364
:1030B0008C837F836E83598748878C819D819A8317
:1030C0008983E981FA81828D882309F450C0E981DE
:1030D000FA8126813781E981FA81848D882F90E0F9
:1030E000820F931FE981FA8197838683E981FA81B0
:1030F00026813781E981FA818481958128173907F2
:1031000040F0E981FA8180819181E981FA81978398
:103110008683E981FA81828D8150E981FA81828FEB
:10312000E981FA8146815781E981FA81848D282FCE
:1031300030E08E819F81BA01A9010E940C2BE885A5
:10314000F9858081882381F4E981FA81808588234B
:1031500059F089819A8108960E944A0B882321F0B0
:10316000E885F98581E0808381E08B8301C01B8243
:103170008B8129960FB6F894DEBF0FBECDBFCF91DD
:10318000DF9108958F929F92AF92BF92CF92DF927C
:10319000EF92FF920F931F93DF93CF93CDB7DEB7DC
:1031A00060970FB6F894DEBF0FBECDBF9F838E83AE
:1031B000798768875B874A873D872C870E87F88ADF
:1031C000EF868A859B850E94A3059A8389838981DE
:1031D0009A810097B1F086E290E00E94A3059D835A
:1031E0008C838C819D81009739F0EC81FD818981F0
:1031F0009A81908F878B07C089819A810E94BE0532
:1032000002C01D821C828C819D810097E9F08A8515
:103210009B859C0140E050E08E819F816885798587
:10322000EC85FD85AF85B889AC80BD808F01EE84CB
:103230006D01882499240E943A198C819D810E94F5
:10324000F61981E08B8302C08FEF8B838B816096B0
:103250000FB6F894DEBF0FBECDBFCF91DF911F91A7
:103260000F91FF90EF90DF90CF90BF90AF909F9025
:103270008F9008958F929F92AF92BF92CF92DF92DC
:10328000EF920F931F93DF93CF93CDB7DEB7649781
:103290000FB6F894DEBF0FBECDBF9D838C837F83B6
:1032A0006E83288739874A875B871D870C87EE8660
:1032B000D88ACF86BA8AA98A9C8A8B8AE989FA89B0
:1032C0002789308D888599850197820F931F9B836D
:1032D0008A838E819F81009751F1198221C0898153
:1032E000482F50E08981282F30E08E819F81FC019A
:1032F000E20FF31F208189899A89840F951FFC01B1
:10330000799620838981282F30E08E819F81FC016E
:10331000E20FF31F8081882331F089818F5F8983D9
:1033200089818830E0F2E989FA8910A203C0E9892D
:10333000FA89118E8E85843010F083E08E87E989BA
:10334000FA898E85868B89899A8902960E94F10E68
:1033500089899A890C960E94F10EE989FA898989EE
:103360009A89918780878E85282F30E084E090E0CD
:10337000821B930BE989FA8995878487E989FA8901
:1033800089899A89938B828BE989FA8911A212A281
:1033900013A214A2E989FA8915A28A819B812C8142
:1033A0003D814C855D85B9010E94D605E989FA8980
:1033B000918380838F859889009731F0EF85F88914
:1033C00089899A899183808364960FB6F894DEBFC9
:1033D0000FBECDBFCF91DF911F910F91EF90DF9086
:1033E000CF90BF90AF909F908F900895DF93CF9331
:1033F00000D0CDB7DEB79A8389830FB6F8940F92C9
:103400008091C7008F5F8093C7008091C400909126
:10341000C500009769F489819A819093C5008093D3
:10342000C4008091C7008130B9F40E94FE1F14C00F
:103430008091CB00882381F4E091C400F091C50015
:103440009689E981FA818689891730F089819A8184
:103450009093C5008093C4008091D0008F5F8093CB
:10346000D000E981FA8196898091CA00891728F4F1
:10347000E981FA8186898093CA00E981FA81868987
:10348000282F30E0C901880F991F880F991F880FD6
:10349000991F820F931FAC014A525F4F89819A8115
:1034A0009C012E5F3F4FCA01B9010E94010F0F908E
:1034B0000FBE8091CB00882361F0E091C400F091B1
:1034C000C5009689E981FA818689981710F40E94CF
:1034D00095070F900F90CF91DF910895DF93CF93D1
:1034E00000D000D000D0CDB7DEB79C838B830FB661
:1034F000F8940F928B819C81009739F48091C400DD
:103500009091C5009E838D8304C08B819C819E8396
:103510008D838D819E819A83898389819A81029688
:103520000E94B10FE981FA8184899589009729F079
:1035300089819A810C960E94B10F8091D0008F5F93
:103540008093D0002091C4003091C50089819A8178
:103550008217930781F489819A819C012E5F3F4FE6
:1035600089E191E0B9010E94010F8091C6008F5F4F
:103570008093C6000BC08091C70081508093C70024
:1035800089819A810E946A200E9480200F900FBE3C
:103590008091CB00882359F02091C4003091C50060
:1035A00089819A818217930711F40E9495072696C4
:1035B0000FB6F894DEBF0FBECDBFCF91DF91089557
:1035C000DF93CF93CDB7DEB72A970FB6F894DEBF5F
:1035D0000FBECDBF98878F837A8769871B820E9431
:1035E000B21B8091C8009091C9009A838983EF81B2
:1035F000F8852081318189859A85820F931F9E836A
:103600008D83EF81F8852081318189819A818217AC
:10361000930798F4EF81F885208131818D819E8117
:1036200082179307E0F42D813E8189819A81821768
:103630009307A8F481E08B8312C0EF81F885208185
:1036400031818D819E818217930738F02D813E81D3
:1036500089819A818217930710F481E08B83EF812F
:10366000F8858D819E81918380838B81882349F0A9
:103670008D819E8129813A81821B930B60E00E949B
:10368000D5240E94BE1B8C838C81882311F40E9458
:1036900095072A960FB6F894DEBF0FBECDBFCF9127
:1036A000DF910895DF93CF9300D00F92CDB7DEB7AF
:1036B0009B838A8319828A819B81009751F00E94A3
:1036C000B21B8A819B8160E00E94D5240E94BE1BB0
:1036D00089838981882311F40E9495070F900F90A8
:1036E0000F90CF91DF910895EF92FF920F93DF93A8
:1036F000CF930F92CDB7DEB78EEE9FE120E630E09C
:10370000E3EDF0E0B90145E550E020E030E000E015
:103710007F010E94C21889838981813081F4F894E5
:103720008FEF9FEF9093D2008093D10081E0809340
:10373000CB001092C9001092C8000E9459070F9048
:10374000CF91DF910F91FF90EF900895DF93CF938A
:10375000CDB7DEB7F8941092CB000E948E07CF91C0
:10376000DF910895DF93CF93CDB7DEB78091D50079
:103770008F5F8093D500CF91DF910895DF93CF9332
:1037800000D000D00F92CDB7DEB71D821C821B8205
:103790000FB6F8940F928091D50081508093D50098
:1037A0008091D500882309F07CC08091C7008823D0
:1037B00009F477C045C0E0911501F09116018681AA
:1037C00097819D838C838C819D810C960E94B10F83
:1037D0008C819D8102960E94B10FEC81FD819689BA
:1037E0008091CA00891728F4EC81FD818689809335
:1037F000CA00EC81FD818689282F30E0C901880F3D
:10380000991F880F991F880F991F820F931FAC0172
:103810004A525F4F8C819D819C012E5F3F4FCA01B0
:10382000B9010E94010FEC81FD819689E091C400ED
:10383000F091C5008689981718F081E08093CE003A
:1038400080911001882309F0B6CF8C819D8100976B
:1038500011F00E9480208091CC009091CD009A833D
:10386000898389819A810097A1F00E94DA1C8823BC
:1038700019F081E08093CE0089819A8101979A8323
:10388000898389819A81009781F71092CD001092E7
:10389000CC008091CE00882321F081E08B830E94B0
:1038A00095070F900FBE8B810F900F900F900F9088
:1038B0000F90CF91DF910895DF93CF9300D0CDB7D4
:1038C000DEB70FB6F8940F928091C8009091C900AE
:1038D0009A8389830F900FBE89819A810F900F90F0
:1038E000CF91DF910895DF93CF9300D00F92CDB7A2
:1038F000DEB719828091C8009091C9009B838A83AA
:103900008A819B810F900F900F90CF91DF91089546
:10391000DF93CF93CDB7DEB78091C700CF91DF9112
:103920000895DF93CF9300D000D000D0CDB7DEB79D
:103930009C838B838B819C81009739F48091C40098
:103940009091C5009E838D8304C08B819C819E8352
:103950008D838D819E819A83898389819A814996FD
:1039600026960FB6F894DEBF0FBECDBFCF91DF9184
:103970000895DF93CF9300D00F92CDB7DEB79B832E
:103980008A8319820E94B21B2091CC003091CD0015
:103990008A819B81820F931F9093CD008093CC00EE
:1039A0000E94BE1B898389810F900F900F90CF9149
:1039B000DF910895DF93CF93CDB7DEB729970FB688
:1039C000F894DEBF0FBECDBF1D828091D500882345
:1039D00009F0C6C08091C8009091C90001969C83EF
:1039E0008B838B819C819093C9008093C8008B81CD
:1039F0009C810097D9F480910C0190910D019A83DC
:103A0000898380910E0190910F0190930D01809315
:103A10000C0189819A8190930F0180930E0180910E
:103A2000CF008F5F8093CF000E9480202091D10033
:103A30003091D2008B819C818217930708F471C06A
:103A4000E0910C01F0910D018081882339F48FEF12
:103A50009FEF9093D2008093D10063C0E0910C015E
:103A6000F0910D010580F681E02D8681978199877F
:103A70008887E885F985828193819F838E832B8156
:103A80003C818E819F812817390738F48E819F8170
:103A90009093D2008093D10044C088859985029686
:103AA0000E94B10FE885F98584899589009729F0EE
:103AB000888599850C960E94B10FE885F9859689CD
:103AC0008091CA00891728F4E885F9858689809352
:103AD000CA00E885F9858689282F30E0C901880F5A
:103AE000991F880F991F880F991F820F931FAC0190
:103AF0004A525F4F888599859C012E5F3F4FCA01CE
:103B0000B9010E94010FE885F9859689E091C4000A
:103B1000F091C5008689981708F492CF81E08D83D3
:103B20008FCFE091C400F091C5008689282F30E046
:103B3000C901880F991F880F991F880F991F820F3D
:103B4000931FFC01EA52FF4F8081823010F081E028
:103B50008D838091CE00882361F081E08D8309C040
:103B60008091CC009091CD0001969093CD008093F0
:103B7000CC008D8129960FB6F894DEBF0FBECDBF65
:103B8000CF91DF910895DF93CF9300D00F92CDB7FF
:103B9000DEB78091D500882321F081E08093CE00AC
:103BA00059C01092CE008091CA008B8303C08B81D4
:103BB00081508B838B81282F30E0C901880F991F9A
:103BC000880F991F880F991F820F931FFC01EA52DB
:103BD000FF4F8081882359F38B81282F30E0C90162
:103BE000880F991F880F991F880F991F820F931FA5
:103BF0008A529F4F9A838983E981FA810180F281F9
:103C0000E02D82819381E981FA8192838183E98128
:103C1000FA812181328189819A8103962817390797
:103C200059F4E981FA810180F281E02D828193814A
:103C3000E981FA8192838183E981FA810180F281AD
:103C4000E02D868197819093C5008093C4008B817D
:103C50008093CA000F900F900F90CF91DF9108953D
:103C6000DF93CF9300D000D0CDB7DEB79A8389839E
:103C70007C836B838091C4009091C5009C01245F7C
:103C80003F4F89819A81B9010E94450F8B819C81A8
:103C900061E00E94D5240F900F900F900F90CF916C
:103CA000DF910895DF93CF9300D000D000D0CDB73F
:103CB000DEB79A8389837C836B835E834D83E09137
:103CC000C400F091C5008B819C81906895878487A2
:103CD0008091C4009091C5009C01245F3F4F898171
:103CE0009A81B9010E94010F8D819E8161E00E943D
:103CF000D52426960FB6F894DEBF0FBECDBFCF9168
:103D0000DF910895DF93CF9300D000D00F92CDB70D
:103D1000DEB79D838C83EC81FD810580F681E02DEB
:103D2000868197819B838A838A819B810C960E94DE
:103D3000B10F8091D500882361F58A819B8102961D
:103D40000E94B10FEA81FB8196898091CA00891790
:103D500028F4EA81FB8186898093CA00EA81FB818D
:103D60008689282F30E0C901880F991F880F991F75
:103D7000880F991F820F931FAC014A525F4F8A81AF
:103D80009B819C012E5F3F4FCA01B9010E94010F28
:103D90000AC08A819B819C01245F3F4F80E191E0B2
:103DA000B9010E94010FEA81FB819689E091C4006C
:103DB000F091C5008689891730F481E0898381E01C
:103DC0008093CE0001C0198289810F900F900F90CF
:103DD0000F900F90CF91DF910895DF93CF9300D094
:103DE00000D000D0CDB7DEB79C838B837E836D83FC
:103DF0008D819E819068EB81FC8191838083EB8132
:103E0000FC81868197819A8389838B819C810E9422
:103E1000B10F89819A8102960E94B10FE981FA81DE
:103E200096898091CA00891728F4E981FA818689E8
:103E30008093CA00E981FA818689282F30E0C90180
:103E4000880F991F880F991F880F991F820F931F42
:103E5000AC014A525F4F89819A819C012E5F3F4F8E
:103E6000CA01B9010E94010FE981FA819689E091A6
:103E7000C400F091C5008689891718F481E0809309
:103E8000CE0026960FB6F894DEBF0FBECDBFCF9101
:103E9000DF910895DF93CF9300D0CDB7DEB79A833B
:103EA00089830FB6F8940F928091CF00E981FA814F
:103EB00080838091C8009091C900E981FA81928342
:103EC00081830F900FBE0F900F90CF91DF910895D7
:103ED000DF93CF9300D0CDB7DEB79A8389838091EB
:103EE000CF00E981FA8180838091C8009091C90058
:103EF000E981FA81928381830F900F90CF91DF91B6
:103F00000895DF93CF93CDB7DEB729970FB6F89416
:103F1000DEBF0FBECDBF9F838E83798768870FB6C4
:103F2000F8940F928091C8009091C9009C838B8374
:103F3000EE81FF81218132818B819C81821B930BD9
:103F40009A838983EE81FF8190818091CF009817B9
:103F500061F0EE81FF81218132818B819C8182170A
:103F6000930718F081E08D8323C0E885F9852081CF
:103F7000318189819A8182179307A0F4E885F985B8
:103F80002081318189819A81A901481B590BCA017D
:103F9000E885F985918380838E819F810E94681FC7
:103FA0001D8206C0E885F9851182108281E08D832B
:103FB0000F900FBE8D8129960FB6F894DEBF0FBE0D
:103FC000CDBFCF91DF910895DF93CF93CDB7DEB70B
:103FD00081E08093CE00CF91DF910895DF93CF935E
:103FE00000D0CDB7DEB79A8389830E943B208091B1
:103FF000D6008230D0F30E949507F7CFDF93CF939E
:104000000F92CDB7DEB7198213C08981282F30E017
:10401000C901880F991F880F991F880F991F820F58
:10402000931F8A529F4F0E94C70E89818F5F898399
:104030008981843050F38AEF90E00E94C70E83E0BC
:1040400091E00E94C70E80E191E00E94C70E89E1D5
:1040500091E00E94C70E8AEF90E090930D0180934B
:104060000C0183E091E090930F0180930E010F907B
:10407000CF91DF910895DF93CF9300D0CDB7DEB716
:1040800020C00FB6F8940F92E0911E01F0911F012D
:10409000868197819A83898389819A8102960E9479
:1040A000B10F8091C70081508093C7008091C600F6
:1040B00081508093C6000F900FBE89819A810E9423
:1040C0006A208091C6008823E1F60F900F90CF916F
:1040D000DF910895DF93CF9300D0CDB7DEB79A83F9
:1040E0008983E981FA818789908D0E94BE05898143
:1040F0009A810E94BE050F900F90CF91DF91089595
:10410000DF93CF9300D0CDB7DEB7E0910C01F091F3
:104110000D018081882339F48FEF9FEF9093D200B7
:104120008093D10013C0E0910C01F0910D01058046
:10413000F681E02D868197819A838983E981FA81CE
:10414000828193819093D2008093D1000F900F9041
:10415000CF91DF910895DF93CF9300D0CDB7DEB735
:10416000E091C400F091C500848595859A83898388
:10417000A091C400B091C500E091C400F091C500C9
:104180008689282F30E084E090E0821B930B1D96F7
:104190009C938E931C9789819A810F900F90CF9159
:1041A000DF910895DF93CF93CDB7DEB727970FB692
:1041B000F894DEBF0FBECDBF8D837F836E830FB6B5
:1041C000F8940F92E091C400F091C50081A192A1F2
:1041D000A3A1B4A10097A105B10589F4E091C400A1
:1041E000F091C50081E085A38E819F81009739F011
:1041F0008E819F8161E00E94D5240E9495070F90D7
:104200000FBE0FB6F8940F92E091C400F091C50074
:1042100081A192A1A3A1B4A189839A83AB83BC831A
:1042200089819A81AB81BC810097A105B105D9F044
:104230008D81882349F0E091C400F091C50011A25E
:1042400012A213A214A20FC0E091C400F091C50005
:1042500089819A81AB81BC810197A109B10981A3B0
:1042600092A3A3A3B4A3E091C400F091C50015A24A
:104270000F900FBE89819A81AB81BC81BC01CD01B9
:1042800027960FB6F894DEBF0FBECDBFCF91DF915A
:104290000895EF92FF920F931F93DF93CF93CDB7C3
:1042A000DEB72D970FB6F894DEBF0FBECDBF6A8381
:1042B0007B838C839D832E833F83488759871B870D
:1042C0000A87FD86EC860FB6F8940F92E091C40041
:1042D000F091C50085A1823049F1E091C400F091D0
:1042E000C50021A132A143A154A18A819B81AC8147
:1042F000BD8180959095A095B09582239323A423AA
:10430000B52381A392A3A3A3B4A3E091C400F09129
:10431000C50081E085A38C859D85009739F08C854B
:104320009D8561E00E94D5240E9495070F900FBEE5
:104330000FB6F8940F928A859B85009771F0E091F3
:10434000C400F091C50081A192A1A3A1B4A1EA8506
:10435000FB8580839183A283B383E091C400F091B5
:10436000C50085A1823011F019821AC0E091C40005
:10437000F091C50021A132A143A154A18E819F815A
:10438000A885B98580959095A095B09582239323B3
:10439000A423B52381A392A3A3A3B4A381E089831B
:1043A000E091C400F091C50015A20F900FBE898165
:1043B0002D960FB6F894DEBF0FBECDBFCF91DF9123
:1043C0001F910F91FF90EF9008950F931F93DF932C
:1043D000CF93CDB7DEB72F970FB6F894DEBF0FBEE1
:1043E000CDBF9E838D834F83588769877A872B87BC
:1043F0001D870C8781E08A838D819E819C838B83BE
:104400000FB6F8940F928C859D85009761F0EB8133
:10441000FC8181A192A1A3A1B4A1EC85FD8580833B
:104420009183A283B383EB81FC8185A18983EB8196
:10443000FC8182E085A38B85282F30E03F872E8783
:104440008E859F858230910559F12E853F852330D9
:10445000310534F48E859F858130910561F04AC025
:104460002E853F852330310559F18E859F85843017
:10447000910589F13FC0EB81FC8121A132A143A1CB
:1044800054A18F819885A985BA85822B932BA42B63
:10449000B52BEB81FC8181A392A3A3A3B4A32AC073
:1044A000EB81FC8181A192A1A3A1B4A10196A11DE0
:1044B000B11DEB81FC8181A392A3A3A3B4A31AC075
:1044C000EB81FC818F819885A985BA8581A392A310
:1044D000A3A3B4A30FC08981823059F0EB81FC8182
:1044E0008F819885A985BA8581A392A3A3A3B4A33C
:1044F00001C01A8289818130B9F58B819C81029635
:104500000E94B10FEB81FC8196898091CA008917C6
:1045100028F4EB81FC8186898093CA00EB81FC81C1
:104520008689282F30E0C901880F991F880F991FAD
:10453000880F991F820F931FAC014A525F4F8B81E6
:104540009C819C012E5F3F4FCA01B9010E94010F5F
:10455000EB81FC819689E091C400F091C5008689C9
:10456000891710F40E9495070F900FBE8A812F962D
:104570000FB6F894DEBF0FBECDBFCF91DF911F9174
:104580000F910895EF92FF920F931F93DF93CF93B4
:10459000CDB7DEB762970FB6F894DEBF0FBECDBFC2
:1045A0009F838E83488759876A877B872C871E87DE
:1045B0000D87F88AEF8681E08A838E819F819D83B3
:1045C0008C8319828D859E85009761F0EC81FD8139
:1045D00081A192A1A3A1B4A1ED85FE8580839183E1
:1045E000A283B383EC81FD8185A18B83EC81FD8166
:1045F00082E085A38C85282F30E03A8B298B89892E
:104600009A898230910559F129893A8923303105F7
:1046100034F489899A898130910561F04AC02989E9
:104620003A892330310559F189899A898430910575
:1046300089F13FC0EC81FD8121A132A143A154A1A8
:1046400088859985AA85BB85822B932BA42BB52BB6
:10465000EC81FD8181A392A3A3A3B4A32AC0EC8122
:10466000FD8181A192A1A3A1B4A10196A11DB11DBB
:10467000EC81FD8181A392A3A3A3B4A31AC0EC8112
:10468000FD8188859985AA85BB8581A392A3A3A373
:10469000B4A30FC08B81823059F0EC81FD818885F5
:1046A0009985AA85BB8581A392A3A3A3B4A301C0C6
:1046B0001A828B81813009F04FC08091D500882308
:1046C00061F58C819D8102960E94B10FEC81FD8184
:1046D00096898091CA00891728F4EC81FD8186892A
:1046E0008093CA00EC81FD818689282F30E0C901C2
:1046F000880F991F880F991F880F991F820F931F8A
:10470000AC014A525F4F8C819D819C012E5F3F4FCF
:10471000CA01B9010E94010F0AC08C819D819C01D0
:10472000245F3F4F80E191E0B9010E94010FEC81CD
:10473000FD819689E091C400F091C50086898917B2
:1047400058F48F859889009721F0EF85F88981E0EA
:10475000808381E08093CE008A8162960FB6F894C0
:10476000DEBF0FBECDBFCF91DF911F910F91FF90A4
:10477000EF900895DF93CF93CDB7DEB728970FB6AC
:10478000F894DEBF0FBECDBF9E838D8378876F8385
:104790008D819E819C838B831982EB81FC8185A115
:1047A0008A83EB81FC8182E085A3EB81FC8181A17E
:1047B00092A1A3A1B4A10196A11DB11DEB81FC8121
:1047C00081A392A3A3A3B4A38A81813009F04FC02F
:1047D0008091D500882361F58B819C8102960E948F
:1047E000B10FEB81FC8196898091CA00891728F46A
:1047F000EB81FC8186898093CA00EB81FC818689EC
:10480000282F30E0C901880F991F880F991F880F42
:10481000991F820F931FAC014A525F4F8B819C817D
:104820009C012E5F3F4FCA01B9010E94010F0AC0CF
:104830008B819C819C01245F3F4F80E191E0B90115
:104840000E94010FEB81FC819689E091C400F091F8
:10485000C5008689891758F48F819885009721F0C3
:10486000EF81F88581E0808381E08093CE002896F7
:104870000FB6F894DEBF0FBECDBFCF91DF91089584
:10488000DF93CF93CDB7DEB727970FB6F894DEBF8F
:104890000FBECDBF9D838C838C819D81009739F4A1
:1048A0008091C4009091C5009F838E8304C08C8149
:1048B0009D819F838E838E819F819B838A830FB688
:1048C000F8940F92EA81FB8185A1823031F4EA816C
:1048D000FB8115A281E0898301C019820F900FBE70
:1048E000898127960FB6F894DEBF0FBECDBFCF915A
:1048F000DF910895DF93CF93CDB7DEB72E970FB634
:10490000F894DEBF0FBECDBF98878F8349875A8743
:104910006B877C878F819885009739F48091C400DC
:104920009091C5009E878D8704C08F8198859E8752
:104930008D878D859E859E838D830FB6F8940F920B
:10494000E091C400F091C50081A192A1A3A1B4A1FE
:1049500089839A83AB83BC83ED81FE8121A132A13F
:1049600043A154A189859A85AB85BC858095909596
:10497000A095B09582239323A423B523ED81FE81D6
:1049800081A392A3A3A3B4A30F900FBE89819A81A0
:10499000AB81BC81BC01CD012E960FB6F894DEBF71
:1049A0000FBECDBFCF91DF910895DF93CF93CDB7E9
:1049B000DEB727970FB6F894DEBF0FBECDBF9E833C
:1049C0008D836F838091C8009091C9009A838983F9
:1049D0008091C4009091C50002960E94B10F298178
:1049E0003A818D819E81820F931F9C838B83E091FE
:1049F000C400F091C5008B819C81938382832B81BD
:104A00003C8189819A812817390770F480910E01C1
:104A100090910F012091C4003091C5002E5F3F4F4F
:104A2000B9010E94450F1EC040910C0150910D012B
:104A30008091C4009091C5009C012E5F3F4FCA0138
:104A4000B9010E94450F2091D1003091D2008B8195
:104A50009C818217930730F48B819C819093D200C4
:104A60008093D10027960FB6F894DEBF0FBECDBF5E
:104A7000CF91DF910895DF93CF93CDB7DEB727971E
:104A80000FB6F894DEBF0FBECDBF89836A834B8318
:104A90008981843008F0EEC08A81883008F0EAC04D
:104AA0008B81813009F06FC08981282F30E03F83EE
:104AB0002E838E819F818130910549F12E813F8126
:104AC000223031052CF48E819F81009761F0D2C095
:104AD0002E813F812230310571F18E819F8183309B
:104AE0009105E9F1C7C0ABE3B0E0EBE3F0E0808112
:104AF000482F8A81282F30E081E090E0022E02C00A
:104B0000880F991F0A94E2F7842B8C93B3C0A8E313
:104B1000B0E0E8E3F0E08081482F8A81282F30E080
:104B200081E090E0022E02C0880F991F0A94E2F7FC
:104B3000842B8C939FC0A5E3B0E0E5E3F0E0808197
:104B4000482F8A81282F30E081E090E0022E02C0B9
:104B5000880F991F0A94E2F7842B8C938BC0A2E3F1
:104B6000B0E0E2E3F0E08081482F8A81282F30E036
:104B700081E090E0022E02C0880F991F0A94E2F7AC
:104B8000842B8C9377C08B81882309F073C0898133
:104B9000282F30E03D832C838C819D8181309105CD
:104BA00059F12C813D81223031052CF48C819D817D
:104BB000009769F05FC02C813D812230310589F179
:104BC0008C819D818330910509F440C053C0ABE3D3
:104BD000B0E0EBE3F0E08081482F8A81282F30E0BD
:104BE00081E090E0022E02C0880F991F0A94E2F73C
:104BF000809584238C933EC0A8E3B0E0E8E3F0E026
:104C00008081482F8A81282F30E081E090E0022EB9
:104C100002C0880F991F0A94E2F7809584238C9331
:104C200029C0A5E3B0E0E5E3F0E08081482F8A8168
:104C3000282F30E081E090E0022E02C0880F991FFB
:104C40000A94E2F7809584238C9314C0A2E3B0E029
:104C5000E2E3F0E08081482F8A81282F30E081E074
:104C600090E0022E02C0880F991F0A94E2F7809507
:104C700084238C9327960FB6F894DEBF0FBECDBF6A
:104C8000CF91DF910895DF93CF9300D000D00F92A2
:104C9000CDB7DEB78A836B838A81843008F06CC01D
:104CA0008B81883008F068C08A81282F30E03D83EE
:104CB0002C834C815D814130510541F18C819D8176
:104CC0008230910534F42C813D812115310561F04C
:104CD00055C04C815D814230510551F18C819D81DF
:104CE00083309105B9F14AC0E9E3F0E08081282FD3
:104CF00030E08B81882F90E0A90102C0559547953F
:104D00008A95E2F7CA018170898338C0E6E3F0E052
:104D10008081282F30E08B81882F90E0A90102C08C
:104D2000559547958A95E2F7CA018170898326C017
:104D3000E3E3F0E08081282F30E08B81882F90E042
:104D4000A90102C0559547958A95E2F7CA0181707D
:104D5000898314C0E0E3F0E08081282F30E08B816C
:104D6000882F90E0A90102C0559547958A95E2F7F2
:104D7000CA018170898302C08FEF898389810F9076
:104D80000F900F900F900F90CF91DF910895DF93C8
:104D9000CF93CDB7DEB727970FB6F894DEBF0FBE1F
:104DA000CDBF89836A834B838981843008F0EEC04C
:104DB0008A81883008F0EAC08B81813009F06FC0A9
:104DC0008981282F30E03F832E838E819F8181301F
:104DD000910549F12E813F81223031052CF48E81DD
:104DE0009F81009761F0D2C02E813F812230310532
:104DF00071F18E819F8183309105E9F1C7C0AAE3EB
:104E0000B0E0EAE3F0E08081482F8A81282F30E08B
:104E100081E090E0022E02C0880F991F0A94E2F709
:104E2000842B8C93B3C0A7E3B0E0E7E3F0E080818C
:104E3000482F8A81282F30E081E090E0022E02C0C6
:104E4000880F991F0A94E2F7842B8C939FC0A4E3E8
:104E5000B0E0E4E3F0E08081482F8A81282F30E041
:104E600081E090E0022E02C0880F991F0A94E2F7B9
:104E7000842B8C938BC0A1E3B0E0E1E3F0E0808170
:104E8000482F8A81282F30E081E090E0022E02C076
:104E9000880F991F0A94E2F7842B8C9377C08B813B
:104EA000882309F073C08981282F30E03D832C834B
:104EB0008C819D818130910559F12C813D81223079
:104EC00031052CF48C819D81009769F05FC02C81A5
:104ED0003D812230310589F18C819D81833091059E
:104EE00009F440C053C0AAE3B0E0EAE3F0E08081F7
:104EF000482F8A81282F30E081E090E0022E02C006
:104F0000880F991F0A94E2F7809584238C933EC002
:104F1000A7E3B0E0E7E3F0E08081482F8A81282F03
:104F200030E081E090E0022E02C0880F991F0A94C1
:104F3000E2F7809584238C9329C0A4E3B0E0E4E3F6
:104F4000F0E08081482F8A81282F30E081E090E0D6
:104F5000022E02C0880F991F0A94E2F780958423DD
:104F60008C9314C0A1E3B0E0E1E3F0E08081482F2E
:104F70008A81282F30E081E090E0022E02C0880F65
:104F8000991F0A94E2F7809584238C9327960FB695
:104F9000F894DEBF0FBECDBFCF91DF910895DF93B0
:104FA000CF9300D000D0CDB7DEB789836A838981E3
:104FB000282F30E03C832B838B819C8181309105AD
:104FC000D1F02B813C81223031052CF48B819C81E6
:104FD000009761F01EC02B813C812230310581F0A9
:104FE0008B819C818330910581F013C0EAE3F0E06E
:104FF0008A8180830EC0E7E3F0E08A81808309C064
:10500000E4E3F0E08A81808304C0E1E3F0E08A8198
:1050100080830F900F900F900F90CF91DF910895A4
:10502000DF93CF9300D000D0CDB7DEB789836A83FA
:105030008981282F30E03C832B838B819C818130B8
:105040009105D1F02B813C81223031052CF48B81EC
:105050009C81009761F01EC02B813C81223031057C
:1050600081F08B819C818330910581F013C0EBE34B
:10507000F0E08A8180830EC0E8E3F0E08A818083DB
:1050800009C0E5E3F0E08A81808304C0E2E3F0E058
:105090008A8180830F900F900F900F90CF91DF91B6
:1050A0000895EF92FF920F93DF93CF93CDB7DEB7C2
:1050B0000E9485298BE798E225E630E0E2E2F1E004
:1050C000B90145E550E020E030E001E07F010E94B9
:1050D000C21880E099E220E730E0E4E2F1E0B901B3
:1050E00045E550E020E030E001E07F010E94C21879
:1050F0000E94741BFFCFDF93CF93CDB7DEB76097CD
:105100000FB6F894DEBF0FBECDBF988B8F870E947D
:10511000962988EE93E00E94521B80E090E0AAE777
:10512000B4E48B879C87AD87BE876B857C858D8536
:105130009E8520E030E04AEF54E40E941F02DC012B
:10514000CB018F839887A987BA876F8178858985F6
:105150009A8520E030E040E85FE30E9479038823ED
:105160002CF481E090E09E838D833FC06F81788531
:1051700089859A8520E03FEF4FE757E40E941903A5
:1051800018164CF56B857C858D859E8520E030E07A
:1051900040E251E40E941F02DC01CB01BC01CD01C1
:1051A0000E944900DC01CB019E838D830FC088ECF7
:1051B00090E09C838B838B819C810197F1F79C838A
:1051C0008B838D819E8101979E838D838D819E81AE
:1051D000009769F79CCF6F81788589859A850E94B1
:1051E0004900DC01CB019E838D838D819E819A8352
:1051F000898389819A810197F1F79A83898387CF7F
:10520000DF93CF93CDB7DEB760970FB6F894DEBFCC
:105210000FBECDBF988B8F870E94B32988EE93E095
:105220000E94521B80E090E0AAE7B4E48B879C8741
:10523000AD87BE876B857C858D859E8520E030E0BF
:105240004AEF54E40E941F02DC01CB018F83988750
:10525000A987BA876F81788589859A8520E030E0B3
:1052600040E85FE30E94790388232CF481E090E01A
:105270009E838D833FC06F81788589859A8520E0E4
:105280003FEF4FE757E40E94190318164CF56B8562
:105290007C858D859E8520E030E040E251E40E94CF
:1052A0001F02DC01CB01BC01CD010E944900DC01E1
:1052B000CB019E838D830FC088EC90E09C838B8311
:1052C0008B819C810197F1F79C838B838D819E81DB
:1052D00001979E838D838D819E81009769F79CCF76
:1052E0006F81788589859A850E944900DC01CB0110
:1052F0009E838D838D819E819A83898389819A8102
:105300000197F1F79A83898387CFDF93CF93CDB746
:10531000DEB780E060E041E00E94C72680E061E007
:1053200041E00E94C726CF91DF910895DF93CF938C
:10533000CDB7DEB780E060E041E00E943B2580E031
:1053400061E040E00E943B25CF91DF910895DF931B
:10535000CF93CDB7DEB780E060E040E00E943B2510
:10536000CF91DF910895DF93CF93CDB7DEB780E083
:1053700061E041E00E943B2580E060E040E00E9467
:105380003B25CF91DF910895DF93CF93CDB7DEB763
:1053900080E061E040E00E943B25CF91DF910895DD
:1053A0002F923F924F925F926F927F928F929F9235
:1053B000AF92BF92CF92DF92EF92FF920F931F9323
:1053C000CF93DF93CDB7DEB7CA1BDB0B0FB6F894D4
:1053D000DEBF0FBECDBF09942A88398848885F8414
:1053E0006E847D848C849B84AA84B984C884DF8085
:1053F000EE80FD800C811B81AA81B981CE0FD11D69
:105400000FB6F894DEBF0FBECDBFED010895CF9368
:10541000DF93BC018230910510F462E070E0A0914E
:105420002801B0912901ED01E0E0F0E040E050E01A
:1054300021C0888199818617970769F48A819B81A9
:10544000309719F09383828304C09093290180934D
:105450002801FE0134C06817790738F44115510559
:1054600019F08417950708F4AC01FE018A819B812D
:105470009C01E9012097E9F641155105A9F1CA01FE
:10548000861B970B049708F4BA01E0E0F0E02AC00D
:105490008D919C91119784179507F9F464177507FE
:1054A00081F412968D919C911397309719F0938304
:1054B000828304C09093290180932801FD013296D4
:1054C0004FC0CA01861B970BFD01E80FF91F6193BE
:1054D000719302978D939C9343C0FD0182819381C8
:1054E0009C01D9011097A1F6809126019091270186
:1054F000892B41F480918600909187009093270139
:1055000080932601409188005091890041155105F2
:1055100041F44DB75EB78091840090918500481B9F
:10552000590B209126013091270124173507B0F43B
:10553000CA01821B930B8617970780F0AB014E5F61
:105540005F4F8417950750F0420F531F5093270168
:1055500040932601F9016193719302C0E0E0F0E00D
:10556000CF01DF91CF910895CF93DF93009709F496
:1055700050C0EC0122971B821A82A0912801B091A1
:105580002901109709F140E050E0AC17BD0708F180
:10559000BB83AA83FE0121913191E20FF31FAE1765
:1055A000BF0779F48D919C911197280F391F2E5FB9
:1055B0003F4F3983288312968D919C9113979B833B
:1055C0008A834115510571F4D0932901C0932801B4
:1055D00020C012968D919C911397AD01009711F008
:1055E000DC01D3CFFA01D383C28321913191E20F41
:1055F000F31FCE17DF0769F488819981280F391FBF
:105600002E5F3F4FFA01318320838A819B819383F0
:105610008283DF91CF910895FB01DC0102C00190EC
:0E5620000D9241505040D8F70895F894FFCFF6
:10562E0049444C45005265644C65645F4F4E5F00C3
:10563E005265644C65645F4F46465F000000000093
:0A564E000000000020002A01000007
:00000001FF
