:100000000C942A000C9484090C94AD0A0C944700BB
:100010000C9447000C9447000C9447000C94470044
:100020000C9447000C9447000C9447000C94470034
:100030000C9447000C9447000C9447000C94470024
:100040000C94A3050C9447000C9447000C944700B3
:100050000C94470011241FBECFE5D8E0DEBFCDBF12
:1000600010E0A0E6B0E0E2E3FEE202C005900D92EF
:10007000A03AB107D9F710E0A0EAB0E001C01D92A4
:10008000A73AB107E1F70E9412060C9417170C94D7
:100090000000EF92FF920F931F937B018C0120E0F1
:1000A00030E040E05FE40E94490388238CF0C801FF
:1000B000B70120E030E040E05FE40E94C1010E940F
:1000C000A9039B01AC01205030404040504806C07D
:1000D000C801B7010E94A9039B01AC01B901CA0183
:1000E0001F910F91FF90EF900895A0E0B0E0EBE733
:1000F000F0E00C94E016DC012B01FA019C919230A7
:1001000008F439C1EB018881823008F433C194309E
:1001100069F4843009F02FC111969C91119789815F
:10012000981709F428C1A4E9B0E025C1843009F486
:1001300021C18230A9F4923009F01DC19A01AD01AC
:1001400088E0EA010990AE01E90109929E0181501F
:10015000C1F7E201898111969C918923818308C1AD
:10016000923009F407C112962D903C901397EB0141
:100170008A819B811496AD90BD90CD90DC901797AD
:10018000EC80FD800E811F819101281B390BB90184
:1001900037FF04C066277727621B730B6032710537
:1001A0000CF061C0121613066CF537014801062EDB
:1001B00004C096948794779467940A94D2F721E0C8
:1001C00030E040E050E004C0220F331F441F551FB1
:1001D0006A95D2F721503040404050402E213F21B7
:1001E00040235123211531054105510521F021E01E
:1001F00030E040E050E079018A01E628F72808293C
:1002000019293CC0232BD1F1260E371E350146019A
:10021000062E04C096948794779467940A94D2F734
:1002200021E030E040E050E004C0220F331F441FC3
:10023000551F6A95D2F721503040404050402A2146
:100240003B214C215D21211531054105510521F04E
:1002500021E030E040E050E059016A01A628B728CB
:10026000C828D9280BC0821593052CF01C01AA249C
:10027000BB24650103C0EE24FF24870111969C91E5
:10028000D20111968C91981709F445C0992339F041
:10029000A80197012A193B094C095D0906C0A6016E
:1002A00095012E193F09400B510B57FD08C01182D3
:1002B0003382228224833583468357831DC081E0A5
:1002C00081833382228288279927DC01821B930B4A
:1002D000A40BB50B84839583A683B7830DC0220F2F
:1002E000331F441F551F24833583468357838281E0
:1002F000938101979383828324813581468157813D
:10030000DA01C9010197A109B1098F5F9F4FAF4F72
:10031000BF4328F30BC0918333822282EA0CFB1C7B
:100320000C1D1D1DE482F5820683178383E0808304
:10033000248135814681578157FF1AC0C901AA27F8
:1003400097FDA095BA2F81709070A070B0705695EF
:10035000479537952795822B932BA42BB52B848318
:100360009583A683B7838281938101969383828349
:10037000DF0101C0D201CD01CDB7DEB7E2E10C94BF
:10038000FC16A0E2B0E0E7ECF1E00C94EC16698317
:100390007A838B839C832D833E834F835887E9E048
:1003A000EE2EF12CEC0EFD1ECE010196B7010E943F
:1003B000D2048E010F5E1F4FCE010596B8010E9438
:1003C000D2048A8991E089278A8BC701B801AE01DE
:1003D000475E5F4F0E9475000E94FD03A096E6E015
:1003E0000C940817A0E2B0E0E8EFF1E00C94EC16F2
:1003F00069837A838B839C832D833E834F835887C5
:10040000F9E0EF2EF12CEC0EFD1ECE010196B701A6
:100410000E94D2048E010F5E1F4FCE010596B801D7
:100420000E94D204C701B801AE01475E5F4F0E942F
:1004300075000E94FD03A096E6E00C940817A0E268
:10044000B0E0E5E2F2E00C94E01669837A838B83F6
:100450009C832D833E834F835887CE010196BE0136
:10046000675F7F4F0E94D204CE010596BE016F5E8A
:100470007F4F0E94D2049985923088F0898982301A
:10048000C8F0943019F4823051F404C0843029F457
:10049000923081F484E990E0C6C0923049F420E0C3
:1004A0009A858A89981321E02A87CE010996BBC0D4
:1004B000823049F420E09A858A89981321E02A8BBA
:1004C000CE014196B0C02D843E844F8458886D88FB
:1004D0007E888F88988CEE24FF248701AA24BB2471
:1004E000650140E050E060E070E0E0E0F0E0C10174
:1004F00081709070892BE9F0E60CF71C081D191D1E
:100500009A01AB012A0D3B1D4C1D5D1D80E090E062
:10051000A0E0B0E0E614F7040805190520F481E036
:1005200090E0A0E0B0E0BA01A901480F591F6A1F8E
:100530007B1FAA0CBB1CCC1CDD1C97FE08C081E0F5
:1005400090E0A0E0B0E0A82AB92ACA2ADB2A3196B6
:10055000E032F10549F0660C771C881C991C569412
:10056000479437942794C3CFFA85EA892B893C892D
:100570008B859C85280F391F2E5F3F4F17C0CA01FE
:1005800081709070892B61F016950795F794E79428
:1005900080E090E0A0E0B0E8E82AF92A0A2B1B2BC3
:1005A00076956795579547952F5F3F4F77FDE7CF36
:1005B0000CC0440F551F661F771F17FD4160EE0CDE
:1005C000FF1C001F111F21503040403090E05907A0
:1005D00090E0690790E4790760F32B8F3C8FDB0193
:1005E000CA018F779070A070B07080349105A1051A
:1005F000B10561F447FD0AC0E114F10401051105DC
:1006000029F0405C5F4F6F4F7F4F40781A8EFE1786
:1006100011F081E08A8F4D8F5E8F6F8F78A383E01A
:10062000898FCE0149960E94FD03A096E2E10C94C9
:10063000FC16A8E1B0E0EFE1F3E00C94EC1669835E
:100640007A838B839C832D833E834F83588789E0F5
:10065000E82EF12CEC0EFD1ECE010196B7010E9492
:10066000D2048E010F5E1F4FCE010596B8010E9485
:10067000D2048985823040F08989823028F0C70110
:10068000B8010E944A0501C08FEF6896E6E00C941D
:100690000817A8E1B0E0EFE4F3E00C94EC166983EE
:1006A0007A838B839C832D833E834F83588789E095
:1006B000E82EF12CEC0EFD1ECE010196B7010E9432
:1006C000D2048E010F5E1F4FCE010596B8010E9425
:1006D000D2048985823040F08989823028F0C701B0
:1006E000B8010E944A0501C08FEF6896E6E00C94BD
:1006F0000817A8E1B0E0EFE7F3E00C94EC1669838B
:100700007A838B839C832D833E834F83588789E034
:10071000E82EF12CEC0EFD1ECE010196B7010E94D1
:10072000D2048E010F5E1F4FCE010596B8010E94C4
:10073000D2048985823040F08989823028F0C7014F
:10074000B8010E944A0501C081E06896E6E00C9479
:100750000817ACE0B0E0EFEAF3E00C94F016698320
:100760007A838B839C83CE010196BE016B5F7F4FA2
:100770000E94D2048D81823061F1823050F1843048
:1007800021F48E81882351F12EC02F81388537FDC9
:1007900020C06E812F3131051CF06623F9F023C093
:1007A0008EE190E0821B930B29853A854B855C8511
:1007B00004C056954795379527958A95D2F76623B5
:1007C000B1F050954095309521953F4F4F4F5F4F79
:1007D0000EC020E030E040E050E009C02FEF3FEFD6
:1007E0004FEF5FE704C020E030E040E050E8B9019F
:1007F000CA012C96E2E00C940C17DF92EF92FF9264
:100800000F931F93FC01E480F58006811781D1804E
:100810008081823048F480E090E0A0E1B0E0E82AF6
:10082000F92A0A2B1B2BA5C0843009F49FC0823003
:1008300021F4EE24FF24870105C0E114F104010531
:10084000110519F4E0E0F0E096C0628173819FEF3A
:10085000623879070CF05BC022E83FEF261B370BAC
:100860002A3131052CF020E030E040E050E02AC091
:10087000B801A701022E04C0769567955795479554
:100880000A94D2F781E090E0A0E0B0E004C0880FC5
:10089000991FAA1FBB1F2A95D2F70197A109B10979
:1008A0008E219F21A023B1230097A105B10521F03E
:1008B00081E090E0A0E0B0E09A01AB01282B392B59
:1008C0004A2B5B2BDA01C9018F779070A070B07052
:1008D00080349105A105B10539F427FF09C0205CDA
:1008E0003F4F4F4F5F4F04C0215C3F4F4F4F5F4F13
:1008F000E0E0F0E02030A0E03A07A0E04A07A0E402
:100900005A0710F0E1E0F0E079018A0127C0603871
:10091000710564F5FB01E158FF4FD801C7018F77DE
:100920009070A070B07080349105A105B10539F4C4
:10093000E7FE0DC080E490E0A0E0B0E004C08FE3EB
:1009400090E0A0E0B0E0E80EF91E0A1F1B1F17FFA1
:1009500005C016950795F794E794319687E01695AC
:100960000795F794E7948A95D1F705C0EE24FF2404
:100970008701EFEFF0E06E2F679566276795902F60
:100980009F77D794DD24D7948E2F8695492F462BB9
:10099000582F5D29B701CA011F910F91FF90EF9069
:1009A000DF900895FC01DB01408151812281622F9B
:1009B0006F7770E0221F2227221F9381892F880FD3
:1009C000822B282F30E0991F9927991F11969C930D
:1009D000119721153105A9F54115510561057105DD
:1009E00011F482E037C082E89FEF13969C938E93B8
:1009F00012979A01AB0167E0220F331F441F551F66
:100A00006A95D1F783E08C930DC0220F331F441FEA
:100A1000551F12968D919C911397019713969C9355
:100A20008E931297203080E0380780E0480780E4FA
:100A3000580758F314962D933D934D935C93179755
:100A400008952F3F310579F4411551056105710570
:100A500019F484E08C93089564FF03C081E08C93C3
:100A600012C01C9210C02F57304013963C932E9307
:100A7000129783E08C9387E0440F551F661F771F02
:100A80008A95D1F7706414964D935D936D937C9322
:100A9000179708951F93DC01FB019C91923008F495
:100AA00047C08081823008F443C0943051F41196DD
:100AB0001C91843099F58181682F70E0611B710968
:100AC0003FC0843021F0923031F48230B9F181811D
:100AD000882389F12DC011961C9111978230F1F075
:100AE00081811817D9F412962D913C911397828128
:100AF00093818217930794F028173907BCF0149656
:100B00008D919D910D90BC91A02D248135814681C0
:100B10005781281739074A075B0718F4112341F05A
:100B20000AC082179307A407B50740F4112319F0F0
:100B300061E070E005C06FEF7FEF02C060E070E041
:100B4000CB011F9108951F920F920FB60F9211249F
:100B50008F93EF93FF93DF93CF93CDB7DEB7809161
:100B6000A000882331F4E5E2F0E080818093A100C9
:100B700009C08091A000813029F4E5E2F0E0808195
:100B80008093A200CF91DF91FF91EF918F910F9011
:100B90000FBE0F901F901895DF93CF93CDB7DEB7A0
:100BA000E7E2F0E080E68083A6E2B0E0E6E2F0E093
:100BB000808180688C93A6E2B0E0E6E2F0E080817C
:100BC000887F8C93A6E2B0E0E6E2F0E08081886066
:100BD0008C93CF91DF910895DF93CF930F92CDB790
:100BE000DEB7898389818093A0008981877089839A
:100BF000A7E2B0E0E7E2F0E08081807E8C93A7E29C
:100C0000B0E0E7E2F0E090818981892B8C93A6E245
:100C1000B0E0E6E2F0E0808180648C930F90CF91A9
:100C2000DF910895DF93CF93CDB7DEB70E944812CE
:100C30000E94CC050E947D160E944A090E94670905
:100C40000E94A5140E94800C0E94451306C00E94B9
:100C500089120E94F9120E94F5138091A600882340
:100C6000B1F70E942213F9CFDF93CF93CDB7DEB750
:100C700027970FB6F894DEBF0FBECDBF89836A8376
:100C80004B838981843008F0EEC08A81883008F077
:100C9000EAC08B81813009F06FC08981282F30E054
:100CA0003F832E838E819F818130910549F12E8172
:100CB0003F81223031052CF48E819F81009761F0B5
:100CC000D2C02E813F812230310571F18E819F810A
:100CD00083309105E9F1C7C0ABE3B0E0EBE3F0E0AE
:100CE0008081482F8A81282F30E081E090E0022E19
:100CF00002C0880F991F0A94E2F7842B8C93B3C02B
:100D0000A8E3B0E0E8E3F0E08081482F8A81282F53
:100D100030E081E090E0022E02C0880F991F0A9413
:100D2000E2F7842B8C939FC0A5E3B0E0E5E3F0E00D
:100D30008081482F8A81282F30E081E090E0022EC8
:100D400002C0880F991F0A94E2F7842B8C938BC002
:100D5000A2E3B0E0E2E3F0E08081482F8A81282F0F
:100D600030E081E090E0022E02C0880F991F0A94C3
:100D7000E2F7842B8C9377C08B81882309F073C0B2
:100D80008981282F30E03D832C838C819D818130A7
:100D9000910559F12C813D81223031052CF48C8153
:100DA0009D81009769F05FC02C813D812230310523
:100DB00089F18C819D818330910509F440C053C035
:100DC000ABE3B0E0EBE3F0E08081482F8A81282F8D
:100DD00030E081E090E0022E02C0880F991F0A9453
:100DE000E2F7809584238C933EC0A8E3B0E0E8E36B
:100DF000F0E08081482F8A81282F30E081E090E068
:100E0000022E02C0880F991F0A94E2F7809584236E
:100E10008C9329C0A5E3B0E0E5E3F0E08081482FA2
:100E20008A81282F30E081E090E0022E02C0880FF6
:100E3000991F0A94E2F7809584238C9314C0A2E34F
:100E4000B0E0E2E3F0E08081482F8A81282F30E093
:100E500081E090E0022E02C0880F991F0A94E2F709
:100E6000809584238C9327960FB6F894DEBF0FBE2F
:100E7000CDBFCF91DF910895DF93CF9300D000D005
:100E80000F92CDB7DEB78A836B838A81843008F0F6
:100E90006CC08B81883008F068C08A81282F30E0D0
:100EA0003D832C834C815D814130510541F18C8122
:100EB0009D818230910534F42C813D8121153105CD
:100EC00061F055C04C815D814230510551F18C81FA
:100ED0009D8183309105B9F14AC0E9E3F0E080815A
:100EE000282F30E08B81882F90E0A90102C0559512
:100EF00047958A95E2F7CA018170898338C0E6E395
:100F0000F0E08081282F30E08B81882F90E0A901CC
:100F100002C0559547958A95E2F7CA018170898389
:100F200026C0E3E3F0E08081282F30E08B81882F1A
:100F300090E0A90102C0559547958A95E2F7CA014C
:100F40008170898314C0E0E3F0E08081282F30E0D5
:100F50008B81882F90E0A90102C0559547958A950D
:100F6000E2F7CA018170898302C08FEF898389818A
:100F70000F900F900F900F900F90CF91DF910895E9
:100F8000DF93CF93CDB7DEB727970FB6F894DEBFC8
:100F90000FBECDBF89836A834B838981843008F07B
:100FA000EEC08A81883008F0EAC08B81813009F078
:100FB0006FC08981282F30E03F832E838E819F81EF
:100FC0008130910549F12E813F81223031052CF489
:100FD0008E819F81009761F0D2C02E813F812230A7
:100FE000310571F18E819F8183309105E9F1C7C090
:100FF000AAE3B0E0EAE3F0E08081482F8A81282F5D
:1010000030E081E090E0022E02C0880F991F0A9420
:10101000E2F7842B8C93B3C0A7E3B0E0E7E3F0E002
:101020008081482F8A81282F30E081E090E0022ED5
:1010300002C0880F991F0A94E2F7842B8C939FC0FB
:10104000A4E3B0E0E4E3F0E08081482F8A81282F18
:1010500030E081E090E0022E02C0880F991F0A94D0
:10106000E2F7842B8C938BC0A1E3B0E0E1E3F0E0E6
:101070008081482F8A81282F30E081E090E0022E85
:1010800002C0880F991F0A94E2F7842B8C9377C0D3
:101090008B81882309F073C08981282F30E03D833C
:1010A0002C838C819D818130910559F12C813D816A
:1010B000223031052CF48C819D81009769F05FC04E
:1010C0002C813D812230310589F18C819D818330D5
:1010D000910509F440C053C0AAE3B0E0EAE3F0E0B0
:1010E0008081482F8A81282F30E081E090E0022E15
:1010F00002C0880F991F0A94E2F7809584238C938D
:101100003EC0A7E3B0E0E7E3F0E08081482F8A81AA
:10111000282F30E081E090E0022E02C0880F991F56
:101120000A94E2F7809584238C9329C0A4E3B0E06D
:10113000E4E3F0E08081482F8A81282F30E081E0CD
:1011400090E0022E02C0880F991F0A94E2F7809562
:1011500084238C9314C0A1E3B0E0E1E3F0E080814C
:10116000482F8A81282F30E081E090E0022E02C0D3
:10117000880F991F0A94E2F7809584238C93279611
:101180000FB6F894DEBF0FBECDBFCF91DF910895AB
:10119000DF93CF9300D000D0CDB7DEB789836A83C9
:1011A0008981282F30E03C832B838B819C81813087
:1011B0009105D1F02B813C81223031052CF48B81BB
:1011C0009C81009761F01EC02B813C81223031054B
:1011D00081F08B819C818330910581F013C0EAE31B
:1011E000F0E08A8180830EC0E7E3F0E08A818083AB
:1011F00009C0E4E3F0E08A81808304C0E1E3F0E029
:101200008A8180830F900F900F900F90CF91DF9184
:101210000895DF93CF9300D000D0CDB7DEB7898398
:101220006A838981282F30E03C832B838B819C81CA
:1012300081309105D1F02B813C81223031052CF495
:101240008B819C81009761F01EC02B813C812230F4
:10125000310581F08B819C818330910581F013C031
:10126000EBE3F0E08A8180830EC0E8E3F0E08A815E
:10127000808309C0E5E3F0E08A81808304C0E2E373
:10128000F0E08A8180830F900F900F900F90CF91A4
:10129000DF910895DF93CF93CDB7DEB7A5E5B0E03A
:1012A000E5E5F0E080818E7F8C93A5E5B0E0E5E593
:1012B000F0E0808182608C93ABE5B0E0EBE5F0E09C
:1012C000808180648C937894CF91DF910895DF932F
:1012D000CF93CDB7DEB7A5E5B0E0E5E5F0E08081DE
:1012E0008B7F8C93A5E5B0E0E5E5F0E08081886038
:1012F0008C93ABE5B0E0EBE5F0E0808180688C9307
:101300007894CF91DF9108951F920F920FB60F92AC
:1013100011242F933F934F935F936F937F938F93FA
:101320009F93AF93BF93EF93FF93DF93CF93CDB78B
:10133000DEB76E97DEBFCDBF1E8E1D8EEDC00E9444
:101340005B1680E090E0A0EAB0E4898F9A8FAB8FC3
:10135000BC8F698D7A8D8B8D9C8D20E030E84BE3BE
:1013600055E40E941F02DC01CB018D8B9E8BAF8B5D
:10137000B88F6D897E898F89988D20E030E040E8B4
:101380005FE30E94790388232CF481E090E09C8B3A
:101390008B8B3FC06D897E898F89988D20E03FEFD0
:1013A0004FE757E40E94190318164CF5698D7A8DA2
:1013B0008B8D9C8D20E030E040E251E40E941F02C2
:1013C000DC01CB01BC01CD010E944900DC01CB0155
:1013D0009C8B8B8B0FC08CE291E09A8B898B8989D7
:1013E0009A890197F1F79A8B898B8B899C89019750
:1013F0009C8B8B8B8B899C89009769F714C06D89B6
:101400007E898F89988D0E944900DC01CB019C8BDD
:101410008B8B8B899C89988B8F878F859889019777
:10142000F1F7988B8F870E946C1680E090E0A0EA1D
:10143000B0E48B879C87AD87BE876B857C858D8567
:101440009E8520E030E84BE355E40E941F02DC015A
:10145000CB018F839887A987BA876F817885898523
:101460009A8520E030E040E85FE30E94790388231A
:101470002CF481E090E09E838D833FC06F8178855E
:1014800089859A8520E03FEF4FE757E40E941903D2
:1014900018164CF56B857C858D859E8520E030E0A7
:1014A00040E251E40E941F02DC01CB01BC01CD01EE
:1014B0000E944900DC01CB019E838D830FC08CE22A
:1014C00091E09C838B838B819C810197F1F79C83B6
:1014D0008B838D819E8101979E838D838D819E81DB
:1014E000009769F714C06F81788589859A850E9475
:1014F0004900DC01CB019E838D838D819E819A837F
:10150000898389819A810197F1F79A8389838D8DE7
:101510009E8D01969E8F8D8F8D8D9E8D843691052B
:101520000CF40DCF8091A6008F5F8093A6006E967D
:10153000DEBFCDBFCF91DF91FF91EF91BF91AF9112
:101540009F918F917F916F915F914F913F912F91DB
:101550000F900FBE0F901F9018951F920F920FB60D
:101560000F9211242F933F934F935F936F937F9329
:101570008F939F93AF93BF93EF93FF93DF93CF939B
:10158000CDB7DEB76E97DEBFCDBF1E8E1D8EEDC010
:101590000E945B1680E090E0A0EAB0E4898F9A8F09
:1015A000AB8FBC8F698D7A8D8B8D9C8D20E030E860
:1015B0004BE355E40E941F02DC01CB018D8B9E8B17
:1015C000AF8BB88F6D897E898F89988D20E030E050
:1015D00040E85FE30E94790388232CF481E090E0E7
:1015E0009C8B8B8B3FC06D897E898F89988D20E085
:1015F0003FEF4FE757E40E94190318164CF5698D29
:101600007A8D8B8D9C8D20E030E040E251E40E9489
:101610001F02DC01CB01BC01CD010E944900DC01AD
:10162000CB019C8B8B8B0FC08CE291E09A8B898BCA
:1016300089899A890197F1F79A8B898B8B899C8983
:1016400001979C8B8B8B8B899C89009769F714C0C1
:101650006D897E898F89988D0E944900DC01CB01BC
:101660009C8B8B8B8B899C89988B8F878F85988996
:101670000197F1F7988B8F870E946C1680E090E0BD
:10168000A0EAB0E48B879C87AD87BE876B857C859D
:101690008D859E8520E030E84BE355E40E941F02D3
:1016A000DC01CB018F839887A987BA876F81788502
:1016B00089859A8520E030E040E85FE30E94790365
:1016C00088232CF481E090E09E838D833FC06F815E
:1016D000788589859A8520E03FEF4FE757E40E949F
:1016E000190318164CF56B857C858D859E8520E049
:1016F00030E040E251E40E941F02DC01CB01BC015A
:10170000CD010E944900DC01CB019E838D830FC077
:101710008CE291E09C838B838B819C810197F1F714
:101720009C838B838D819E8101979E838D838D8188
:101730009E81009769F714C06F81788589859A85A5
:101740000E944900DC01CB019E838D838D819E81A7
:101750009A83898389819A810197F1F79A83898392
:101760008D8D9E8D01969E8F8D8F8D8D9E8D843655
:1017700091050CF40DCF8091A600882331F0809163
:10178000A60081508093A60002C01092A6006E961B
:10179000DEBFCDBFCF91DF91FF91EF91BF91AF91B0
:1017A0009F918F917F916F915F914F913F912F9179
:1017B0000F900FBE0F901F901895DF93CF93CDB76A
:1017C000DEB72F970FB6F894DEBF0FBECDBF8F8761
:1017D00080E065E040E00E94340680E066E040E0A2
:1017E0000E94340680E067E041E00E94340682E017
:1017F0006F850E94090980E067E040E00E9434069E
:1018000080E090E0A0EAB0E48B879C87AD87BE873C
:101810006B857C858D859E8520E030E84BE355E423
:101820000E941F02DC01CB018F839887A987BA87AA
:101830006F81788589859A8520E030E040E85FE314
:101840000E94790388232CF481E090E09E838D83AD
:101850003FC06F81788589859A8520E03FEF4FE70B
:1018600057E40E94190318164CF56B857C858D850D
:101870009E8520E030E040E251E40E941F02DC013E
:10188000CB01BC01CD010E944900DC01CB019E834C
:101890008D830FC08CE291E09C838B838B819C8134
:1018A0000197F1F79C838B838D819E8101979E83A5
:1018B0008D838D819E81009769F714C06F81788533
:1018C00089859A850E944900DC01CB019E838D8326
:1018D0008D819E819A83898389819A810197F1F70D
:1018E0009A83898380E067E041E00E9434062F9666
:1018F0000FB6F894DEBF0FBECDBFCF91DF91089534
:101900000F931F93DF93CF93CDB7DEB7C654D0406C
:101910000FB6F894DEBF0FBECDBF80E064E041E0BB
:101920000E94C00780E065E041E00E94C00780E0BF
:1019300066E041E00E94C00780E067E041E00E946D
:10194000C00782E06FEF0E94C80880E064E041E0D9
:101950000E943406FE01ED5BFF4F80E090E0A0EABC
:10196000B0E480839183A283B3838E01015C1F4F17
:10197000FE01ED5BFF4F608171818281938120E0E8
:1019800030E84BE355E40E941F02DC01CB01F80173
:1019900080839183A283B383FE01FF96608171816E
:1019A0008281938120E030E040E85FE30E94790388
:1019B00088232CF481E090E09EAF8DAF46C0FE01FD
:1019C000FF96608171818281938120E03FEF4FE734
:1019D00057E40E941903181664F5FE01ED5BFF4FF2
:1019E000608171818281938120E030E040E251E4A6
:1019F0000E941F02DC01CB01BC01CD010E94490005
:101A0000DC01CB019EAF8DAF0FC08CE291E09CAFAB
:101A10008BAF8BAD9CAD0197F1F79CAF8BAF8DADCC
:101A20009EAD01979EAF8DAF8DAD9EAD009769F7CE
:101A300016C0FE01FF9660817181828193810E94B0
:101A40004900DC01CB019EAF8DAF8DAD9EAD9AAF4D
:101A500089AF89AD9AAD0197F1F79AAF89AF88E365
:101A60000E94DD0B80E090E0A0EAB0E48DAB9EAB7D
:101A7000AFABB8AF6DA97EA98FA998AD20E030E8D3
:101A80004BE355E40E941F02DC01CB0189AB9AAB0A
:101A9000ABABBCAB69A97AA98BA99CA920E030E0CB
:101AA00040E85FE30E94790388232CF481E090E012
:101AB00098AB8FA73FC069A97AA98BA99CA920E000
:101AC0003FEF4FE757E40E94190318164CF56DA934
:101AD0007EA98FA998AD20E030E040E251E40E9459
:101AE0001F02DC01CB01BC01CD010E944900DC01D9
:101AF000CB0198AB8FA70FC08CE291E09EA78DA77A
:101B00008DA59EA50197F1F79EA78DA78FA598A9F2
:101B1000019798AB8FA78FA598A9009769F714C074
:101B200069A97AA98BA99CA90E944900DC01CB0173
:101B300098AB8FA78FA598A99CA78BA78BA59CA5D1
:101B40000197F1F79CA78BA78FE00E94DD0B80E047
:101B500090E0A0EAB0E48FA398A7A9A7BAA76FA1C5
:101B600078A589A59AA520E030E84BE355E40E94CA
:101B70001F02DC01CB018BA39CA3ADA3BEA36BA171
:101B80007CA18DA19EA120E030E040E85FE30E94AF
:101B9000790388232CF481E090E09AA389A33FC0C5
:101BA0006BA17CA18DA19EA120E03FEF4FE757E400
:101BB0000E94190318164CF56FA178A589A59AA55E
:101BC00020E030E040E251E40E941F02DC01CB0142
:101BD000BC01CD010E944900DC01CB019AA389A37D
:101BE0000FC08CE291E098A38F8F8F8D98A1019701
:101BF000F1F798A38F8F89A19AA101979AA389A33E
:101C000089A19AA1009769F714C06BA17CA18DA14D
:101C10009EA10E944900DC01CB019AA389A389A15E
:101C20009AA19E8F8D8F8D8D9E8D0197F1F79E8F3E
:101C30008D8F81E00E94DD0B80E090E0A0EAB0E4AF
:101C4000898F9A8FAB8FBC8F698D7A8D8B8D9C8D90
:101C500020E030E84BE355E40E941F02DC01CB0199
:101C60008D8B9E8BAF8BB88F6D897E898F89988D78
:101C700020E030E040E85FE30E94790388232CF401
:101C800081E090E09C8B8B8B3FC06D897E898F8932
:101C9000988D20E03FEF4FE757E40E941903181694
:101CA0004CF5698D7A8D8B8D9C8D20E030E040E283
:101CB00051E40E941F02DC01CB01BC01CD010E9456
:101CC0004900DC01CB019C8B8B8B0FC08CE291E037
:101CD0009A8B898B89899A890197F1F79A8B898BDD
:101CE0008B899C8901979C8B8B8B8B899C89009716
:101CF00069F714C06D897E898F89988D0E9449008B
:101D0000DC01CB019C8B8B8B8B899C89988B8F877B
:101D10008F8598890197F1F7988B8F8786E00E94CD
:101D2000DD0B80E090E0A0EAB0E48B879C87AD8774
:101D3000BE876B857C858D859E8520E030E84BE3F2
:101D400055E40E941F02DC01CB018F839887A9878D
:101D5000BA876F81788589859A8520E030E040E8F0
:101D60005FE30E94790388232CF481E090E09E8356
:101D70008D833FC06F81788589859A8520E03FEF0C
:101D80004FE757E40E94190318164CF56B857C85C4
:101D90008D859E8520E030E040E251E40E941F02E4
:101DA000DC01CB01BC01CD010E944900DC01CB016B
:101DB0009E838D830FC08CE291E09C838B838B810B
:101DC0009C810197F1F79C838B838D819E81019784
:101DD0009E838D838D819E81009769F714C06F81EA
:101DE000788589859A850E944900DC01CB019E8314
:101DF0008D838D819E819A83898389819A810197C0
:101E0000F1F79A838983CA5BDF4F0FB6F894DEBF80
:101E10000FBECDBFCF91DF911F910F910895DF933A
:101E2000CF93CDB7DEB76D970FB6F894DEBF0FBE78
:101E3000CDBF8D8F80E065E041E00E94340680E0F8
:101E400066E040E00E94340680E067E041E00E94E6
:101E5000340682E06D8D0E94090980E067E040E071
:101E60000E94340680E090E0A0EAB0E4898F9A8F67
:101E7000AB8FBC8F698D7A8D8B8D9C8D20E030E887
:101E80004BE355E40E941F02DC01CB018D8B9E8B3E
:101E9000AF8BB88F6D897E898F89988D20E030E077
:101EA00040E85FE30E94790388232CF481E090E00E
:101EB0009C8B8B8B3FC06D897E898F89988D20E0AC
:101EC0003FEF4FE757E40E94190318164CF5698D50
:101ED0007A8D8B8D9C8D20E030E040E251E40E94B1
:101EE0001F02DC01CB01BC01CD010E944900DC01D5
:101EF000CB019C8B8B8B0FC08CE291E09A8B898BF2
:101F000089899A890197F1F79A8B898B8B899C89AA
:101F100001979C8B8B8B8B899C89009769F714C0E8
:101F20006D897E898F89988D0E944900DC01CB01E3
:101F30009C8B8B8B8B899C89988B8F878F859889BD
:101F40000197F1F7988B8F8780E067E041E00E946E
:101F5000340680E090E0A0EAB0E48B879C87AD87F0
:101F6000BE876B857C858D859E8520E030E84BE3C0
:101F700055E40E941F02DC01CB018F839887A9875B
:101F8000BA876F81788589859A8520E030E040E8BE
:101F90005FE30E94790388232CF481E090E09E8324
:101FA0008D833FC06F81788589859A8520E03FEFDA
:101FB0004FE757E40E94190318164CF56B857C8592
:101FC0008D859E8520E030E040E251E40E941F02B2
:101FD000DC01CB01BC01CD010E944900DC01CB0139
:101FE0009E838D830FC08CE291E09C838B838B81D9
:101FF0009C810197F1F79C838B838D819E81019752
:102000009E838D838D819E81009769F714C06F81B7
:10201000788589859A850E944900DC01CB019E83E1
:102020008D838D819E819A83898389819A8101978D
:10203000F1F79A8389836D960FB6F894DEBF0FBED1
:10204000CDBFCF91DF910895DF93CF93CDB7DEB7AA
:1020500062970FB6F894DEBF0FBECDBF998B888B09
:102060006A8B1F861F8680C08F85282F30E0888965
:102070009989FC01E20FF31F80810E940F0F80E01D
:1020800090E0A0EAB0E48B879C87AD87BE876B8524
:102090007C858D859E8520E030E84BE355E40E94E9
:1020A0001F02DC01CB018F839887A987BA876F81D4
:1020B000788589859A8520E030E040E85FE30E94DA
:1020C000790388232CF481E090E09E838D833FC0C8
:1020D0006F81788589859A8520E03FEF4FE757E447
:1020E0000E94190318164CF56B857C858D859E859D
:1020F00020E030E040E251E40E941F02DC01CB010D
:10210000BC01CD010E944900DC01CB019E838D837F
:102110000FC08CE291E09C838B838B819C81019723
:10212000F1F79C838B838D819E8101979E838D83A4
:102130008D819E81009769F714C06F8178858985AC
:102140009A850E944900DC01CB019E838D838D819D
:102150009E819A83898389819A810197F1F79A8375
:1021600089838F858F5F8F879F858A89981760F411
:102170008F85282F30E088899989FC01E20FF31FB1
:102180008081882309F070CF62960FB6F894DEBF85
:102190000FBECDBFCF91DF910895DF93CF93CDB721
:1021A000DEB781E00E94DD0B82E00E94DD0BCF9163
:1021B000DF910895DF93CF9300D000D0CDB7DEB785
:1021C00089836A8389818823E1F089818131C8F418
:1021D0008A81282F30E03C832B838B819C81813046
:1021E000910531F02B813C812230310531F009C05D
:1021F000898181580E94DD0B04C0898181540E942D
:10220000DD0B0F900F900F900F90CF91DF910895FD
:10221000DF93CF93CDB7DEB762970FB6F894DEBFEA
:102220000FBECDBF988B8F877A8B698B8AE0FE01BA
:102230003596DF01282F1D922A95E9F784E090E07A
:102240009C838B831A82198280E20E940F0F24C024
:10225000EB81FC818F8598892AE030E0B9010E94EA
:10226000AA16AC019F01220F331FCE010196820FE7
:10227000931FFC013496518340838F8598892AE00F
:1022800030E0B9010E94AA16CB01988B8F878B8111
:102290009C8101979C838B838F8598890097C1F6D9
:1022A00089899A89AFEF8F3F9A07B1F405C0898178
:1022B0009A8101969A83898389819A819C01220F50
:1022C000331FCE010196820F931FFC01349680814B
:1022D0009181009761F308C085E090E029893A89EF
:1022E000821B930B9A83898389819A819C838B8338
:1022F00015C08B819C819C01220F331FCE0101965A
:10230000820F931FFC01349680819181805D0E9431
:102310000F0F8B819C8101969C838B838B819C8189
:102320008530910530F362960FB6F894DEBF0FBE8C
:10233000CDBFCF91DF9108950F931F93DF93CF937C
:1023400000D000D000D0CDB7DEB769837A838B830D
:102350009C835E834D8389819A81AB81BC8120E11E
:1023600037E240E050E0BC01CD010E94BE16DA0128
:10237000C9012AE030E040E050E0BC01CD010E94FC
:10238000BE16DC01CB01805DED81FE8180838D81F5
:102390009E818C010F5F1F4F89819A81AB81BC8127
:1023A00028EE33E040E050E0BC01CD010E94BE16B3
:1023B000DA01C9012AE030E040E050E0BC01CD0183
:1023C0000E94BE16DC01CB01805DF80180838D8107
:1023D0009E818C010E5F1F4F89819A81AB81BC81E8
:1023E00024E630E040E050E0BC01CD010E94BE1682
:1023F000DA01C9012AE030E040E050E0BC01CD0143
:102400000E94BE16DC01CB01805DF80180838D81C6
:102410009E818C010D5F1F4F89819A81AB81BC81A8
:102420002AE030E040E050E0BC01CD010E94BE1641
:10243000DA01C9012AE030E040E050E0BC01CD0102
:102440000E94BE16DC01CB01805DF80180838D8186
:102450009E818C010C5F1F4F89819A81AB81BC8169
:102460002AE030E040E050E0BC01CD010E94BE1601
:10247000DC01CB01805DF801808326960FB6F894CD
:10248000DEBF0FBECDBFCF91DF911F910F91089599
:10249000DF93CF93CDB7DEB780E060E040E00E94ED
:1024A000C00780E061E040E00E94C00783E062E096
:1024B00040E00E94C00783E063E040E00E94C00764
:1024C00081E060E041E00E94C00781E063E041E01C
:1024D0000E94C00783E062E041E00E94340683E08E
:1024E00063E041E00E94340681E060E040E00E9449
:1024F000340681E063E041E00E94340682E06FEF41
:102500000E94C80880E060EF0E94C808CF91DF9168
:102510000895DF93CF9300D0CDB7DEB71A8219822A
:1025200080E00E94EC058091A100882F90E0A0E05F
:10253000B0E028E833E140E050E0BC01CD010E946A
:102540008B16DC01CB012FEF30E040E050E0BC0106
:10255000CD010E94BE16DA01C9019A83898389815F
:102560009A812AE030E0B9010E94AA16CB0190932B
:10257000A4008093A3008091A3009091A4008431D3
:10258000910550F4ECE5F0E0108284E690E0909341
:102590009F0080939E0028C08091A3009091A4008A
:1025A0008431910590F08091A3009091A4008C312A
:1025B000910558F4ECE5F0E080E8808389E690E04E
:1025C00090939F0080939E000FC081E063E040E005
:1025D0000E943406ECE5F0E08FEF808389E690E01E
:1025E00090939F0080939E000F900F90CF91DF916A
:1025F0000895DF93CF93CDB7DEB781E00E94EC055D
:102600008091A2008093A5008091A200853660F49D
:1026100081E060E041E00E9434068EE690E0909315
:102620009D0080939C000BC081E060E040E00E9430
:10263000340684E690E090939D0080939C00CF91B7
:10264000DF910895DF93CF93CDB7DEB70E94CD1011
:10265000ECE5F0E01082E3E4F0E0108281E060E07D
:1026600040E00E94340683E062E041E00E943406CC
:1026700083E063E041E00E94340681E063E041E0F2
:102680000E943406CF91DF910895DF93CF93CDB7A9
:10269000DEB76E970FB6F894DEBF0FBECDBFCE018A
:1026A0000F969B8F8A8FE2E7F0E0FD8FEC8FFBE0C7
:1026B000FE8FEC8DFD8D00808C8D9D8D01969D8F04
:1026C0008C8FEA8DFB8D00828A8D9B8D01969B8F6E
:1026D0008A8F9E8D91509E8FEE8DEE2351F781E073
:1026E00061E00E94DA10CE010F966AE00E94241089
:1026F00080E090E0AAE7B4E48B879C87AD87BE8733
:102700006B857C858D859E8520E030E84BE355E424
:102710000E941F02DC01CB018F839887A987BA87AB
:102720006F81788589859A8520E030E040E85FE315
:102730000E94790388232CF481E090E09E838D83AE
:102740003FC06F81788589859A8520E03FEF4FE70C
:1027500057E40E94190318164CF56B857C858D850E
:102760009E8520E030E040E251E40E941F02DC013F
:10277000CB01BC01CD010E944900DC01CB019E834D
:102780008D830FC08CE291E09C838B838B819C8135
:102790000197F1F79C838B838D819E8101979E83A6
:1027A0008D838D819E81009769F714C06F81788534
:1027B00089859A850E944900DC01CB019E838D8327
:1027C0008D819E819A83898389819A810197F1F70E
:1027D0009A8389830E94CD106E960FB6F894DEBF5F
:1027E0000FBECDBFCF91DF910895DF93CF93CDB7CB
:1027F000DEB76A970FB6F894DEBF0FBECDBF8091EB
:10280000840090918500A0918600B0918700898313
:102810009A83AB83BC838091880090918900A091BA
:102820008A00B0918B008D839E83AF83B887CE01E1
:1028300009969A8B898BECE8F0E0FC8BEB8BF5E04A
:10284000FD8BEB89FC8900808B899C8901969C8B90
:102850008B8BE989FA89008289899A8901969A8BFA
:10286000898B9D8991509D8BED89EE2351F7CE0187
:102870000E969F8B8E8BE1E9F0E0F98FE88FF3E005
:10288000FA8FE88DF98D0080888D998D0196998F4A
:10289000888FEE89FF8900828E899F8901969F8BA0
:1028A0008E8B9A8D91509A8FEA8DEE2351F781E0AD
:1028B00061E00E94DA10CE01019663E00E942410CC
:1028C0008091A3009091A40062E070E00E94081142
:1028D0008DE790E064E00E942410CE010E9662E045
:1028E0000E9424108091A6008695882F90E062E0D7
:1028F00070E00E94081181E062E00E94DA10CE01CF
:10290000059664E00E94241080919E0090919F00A3
:1029100063E00E94241082E890E063E00E942410AB
:10292000CE01099664E00E94241080919C00909151
:102930009D0064E00E9424106A960FB6F894DEBFF2
:102940000FBECDBFCF91DF910895DF93CF93CDB769
:10295000DEB783E064E041E00E94C00783E065E009
:1029600041E00E94C00783E066E041E00E94C007AA
:1029700083E067E041E00E94C00783E064E041E05B
:102980000E94340683E065E040E00E94340683E064
:1029900066E040E00E94340683E067E040E00E9489
:1029A0003406CF91DF910895DF93CF93CDB7DEB793
:1029B000AA970FB6F894DEBF0FBECDBF83E064E0E8
:1029C00040E00E94340683E065E041E00E94340666
:1029D00080E090E0A0E2B1E48FA398A7A9A7BAA7EE
:1029E0006FA178A589A59AA520E030E84BE355E4CE
:1029F0000E941F02DC01CB018BA39CA3ADA3BEA34D
:102A00006BA17CA18DA19EA120E030E040E85FE3B6
:102A10000E94790388232CF481E090E09AA389A393
:102A20003FC06BA17CA18DA19EA120E03FEF4FE7AD
:102A300057E40E94190318164CF56FA178A589A5D3
:102A40009AA520E030E040E251E40E941F02DC0140
:102A5000CB01BC01CD010E944900DC01CB019AA34E
:102A600089A30FC08CE291E098A38F8F8F8D98A1DE
:102A70000197F1F798A38F8F89A19AA101979AA343
:102A800089A389A19AA1009769F714C06BA17CA1C1
:102A90008DA19EA10E944900DC01CB019AA389A3CC
:102AA00089A19AA19E8F8D8F8D8D9E8D0197F1F7B3
:102AB0009E8F8D8F83E065E040E00E94340683E0C6
:102AC00066E041E00E94340680E090E0A0E2B1E4DC
:102AD000898F9A8FAB8FBC8F698D7A8D8B8D9C8DF2
:102AE00020E030E84BE355E40E941F02DC01CB01FB
:102AF0008D8B9E8BAF8BB88F6D897E898F89988DDA
:102B000020E030E040E85FE30E94790388232CF462
:102B100081E090E09C8B8B8B3FC06D897E898F8993
:102B2000988D20E03FEF4FE757E40E9419031816F5
:102B30004CF5698D7A8D8B8D9C8D20E030E040E2E4
:102B400051E40E941F02DC01CB01BC01CD010E94B7
:102B50004900DC01CB019C8B8B8B0FC08CE291E098
:102B60009A8B898B89899A890197F1F79A8B898B3E
:102B70008B899C8901979C8B8B8B8B899C89009777
:102B800069F714C06D897E898F89988D0E944900EC
:102B9000DC01CB019C8B8B8B8B899C89988B8F87DD
:102BA0008F8598890197F1F7988B8F8783E066E08E
:102BB00040E00E94340683E067E041E00E94340672
:102BC00080E090E0A0E2B1E48B879C87AD87BE8770
:102BD0006B857C858D859E8520E030E84BE355E450
:102BE0000E941F02DC01CB018F839887A987BA87D7
:102BF0006F81788589859A8520E030E040E85FE341
:102C00000E94790388232CF481E090E09E838D83D9
:102C10003FC06F81788589859A8520E03FEF4FE737
:102C200057E40E94190318164CF56B857C858D8539
:102C30009E8520E030E040E251E40E941F02DC016A
:102C4000CB01BC01CD010E944900DC01CB019E8378
:102C50008D830FC08CE291E09C838B838B819C8160
:102C60000197F1F79C838B838D819E8101979E83D1
:102C70008D838D819E81009769F714C06F8178855F
:102C800089859A850E944900DC01CB019E838D8352
:102C90008D819E819A83898389819A810197F1F739
:102CA0009A838983AA960FB6F894DEBF0FBECDBF74
:102CB000CF91DF910895DF93CF93CDB7DEB783E057
:102CC00064E040E00E94340683E065E041E00E9459
:102CD0003406CF91DF910895DF93CF93CDB7DEB760
:102CE00083E064E041E00E94340683E065E040E078
:102CF0000E943406CF91DF910895DF93CF93CDB733
:102D0000DEB7E3E5F0E083E68083ECE5F0E01082F7
:102D1000CF91DF910895629FD001739FF001829F50
:102D2000E00DF11D649FE00DF11D929FF00D839F5A
:102D3000F00D749FF00D659FF00D9927729FB00DF7
:102D4000E11DF91F639FB00DE11DF91FBD01CF010A
:102D500011240895AA1BBB1B51E107C0AA1FBB1F6A
:102D6000A617B70710F0A61BB70B881F991F5A9517
:102D7000A9F780959095BC01CD010895A1E21A2E86
:102D8000AA1BBB1BFD010DC0AA1FBB1FEE1FFF1F0F
:102D9000A217B307E407F50720F0A21BB30BE40B5F
:102DA000F50B661F771F881F991F1A9469F76095A6
:102DB0007095809590959B01AC01BD01CF01089560
:102DC0002F923F924F925F926F927F928F929F923B
:102DD000AF92BF92CF92DF92EF92FF920F931F9329
:102DE000CF93DF93CDB7DEB7CA1BDB0B0FB6F894DA
:102DF000DEBF0FBECDBF09942A88398848885F841A
:102E00006E847D848C849B84AA84B984C884DF808A
:102E1000EE80FD800C811B81AA81B981CE0FD11D6E
:102E20000FB6F894DEBF0FBECDBFED010895F89444
:022E3000FFCFD2
:102E32004F4646005F4F4646005F4F4E5F005F4F72
:102E42004E0057656C636F6D652E2E2E0020232376
:102E520020002300544D500046414E004C414D503D
:102E6200004E420000000000000000006000600010
:00000001FF
