:100000000C942A000C9434000C9434000C943400AA
:100010000C9434000C9434000C9434000C94340090
:100020000C9434000C945C000C9434000C94340058
:100030000C9434000C9434000C9434000C94340070
:100040000C9434000C9434000C9434000C94340060
:100050000C94340011241FBECFE5D8E0DEBFCDBF25
:100060000E9445000C9480000C940000DF93CF9315
:10007000CDB7DEB7E3E5F0E083E68083ECE5F0E0C2
:1000800080E88083CF91DF910895DF93CF93CDB740
:10009000DEB70E944E000E943600FFCFDF93CF9361
:1000A000CDB7DEB7E7E3F0E08FEF8083E8E3F0E081
:1000B0001082CF91DF9108951F920F920FB60F9289
:1000C00011248F939F93AF93BF93EF93FF93DF938D
:1000D000CF93CDB7DEB7A2E3B0E0E2E3F0E09081EA
:1000E00080E489278C93CF91DF91FF91EF91BF91AD
:1000F000AF919F918F910F900FBE0F901F90189509
:04010000F894FFCFA1
:00000001FF
