:100000000C942A000C9447000C9447000C94470071
:100010000C9447000C9447000C9447000C94470044
:100020000C9447000C9447000C9447000C94470034
:100030000C9447000C9447000C9447000C94470024
:100040000C9447000C9447000C9447000C94470014
:100050000C94470011241FBECFE5D8E0DEBFCDBF12
:1000600010E0A0E6B0E0EEEAFDE002C005900D92DF
:10007000A239B107D9F710E0A2E9B0E001C01D92A2
:10008000AC39B107E1F70E9449000C94D5060C94F5
:100090000000EF92FF920F931F93CF93DF930E9484
:1000A000B7030E9471030E94C40330E6E32E30E0E0
:1000B000F32E08E610E0C1E7D0E00E94D20380935F
:1000C00092000E94D203880F991F880F991F909366
:1000D0009400809393000E94D2038093950000D0F7
:1000E00000D0EDB7FEB73196ADB7BEB71296FC9211
:1000F000EE92119780919200828313820E940C04E9
:10010000EDB7FEB712830183809193009091940024
:10011000948383830E940C04EDB7FEB73196ADB78C
:10012000BEB71296DC93CE9311978091950082838F
:1001300013820E940C040F900F900F900F90BDCF70
:10014000843008F075C0683008F072C04130B1F5F5
:10015000813099F0813030F08230D1F0833009F075
:1001600067C021C02BB381E090E002C0880F991FC7
:100170006A95E2F7282B2BBB089528B381E090E025
:1001800002C0880F991F6A95E2F7282B28BB0895B3
:1001900025B381E090E002C0880F991F6A95E2F7CD
:1001A000282B25BB089522B381E090E002C0880F80
:1001B000991F6A95E2F7282B22BB08954423C1F5C5
:1001C000813099F0813028F08230D9F0833081F588
:1001D00024C02BB381E090E002C0880F991F6A957C
:1001E000E2F7809582238BBB089528B381E090E0ED
:1001F00002C0880F991F6A95E2F78095822388BB19
:10020000089525B381E090E002C0880F991F6A9598
:10021000E2F78095822385BB089522B381E090E0C8
:1002200002C0880F991F6A95E2F78095822382BBEE
:1002300008958430D0F46830C0F4813049F08130C2
:1002400028F0823039F0833089F406C089B305C0C4
:1002500086B303C083B301C080B390E002C095951C
:1002600087956A95E2F7817008958FEF089584303D
:1002700008F075C0683008F072C04130B1F58130C7
:1002800099F0813030F08230D1F0833009F067C0CE
:1002900021C02AB381E090E002C0880F991F6A95BF
:1002A000E2F7282B2ABB089527B381E090E002C033
:1002B000880F991F6A95E2F7282B27BB089524B36E
:1002C00081E090E002C0880F991F6A95E2F7282B21
:1002D00024BB089521B381E090E002C0880F991FEC
:1002E0006A95E2F7282B21BB08954423C1F581309C
:1002F00099F0813028F08230D9F0833081F524C024
:100300002AB381E090E002C0880F991F6A95E2F756
:10031000809582238ABB089527B381E090E002C0D4
:10032000880F991F6A95E2F78095822387BB08950D
:1003300024B381E090E002C0880F991F6A95E2F72C
:100340008095822384BB089521B381E090E002C0B0
:10035000880F991F6A95E2F78095822381BB0895E3
:10036000813049F0813028F0823039F0833041F417
:1003700006C06ABB089567BB089564BB089561BB5E
:100380000895813049F0813028F0823039F083308F
:1003900041F406C06BBB089568BB089565BB089522
:1003A00062BB0895AF92BF92DF92EF92FF920F93DC
:1003B0001F93CF93DF93EE2400E010E020E6A22EFF
:1003C0002AEEB22ED02E83E0602F40E00E94A000E3
:1003D000E801CC0FDD1FCC0FDD1FCF57DF4F84E0CE
:1003E000F82E83E06F2D0E941901882351F4E880D4
:1003F00083E06F2D0E9419018823D1F3C501019775
:10040000F1F7F394219688E0F81659F783E06D2D03
:1004100041E00E94A0000F5F1F4F0430110591F6CC
:100420008E2DDF91CF911F910F91FF90EF90DF9074
:10043000BF90AF900895CF92DF92EF92FF920F930B
:100440001F937B018C016A0120E137E240E050E01C
:100450000E94EA03CA01B9012AE030E040E050E01E
:100460000E94EA03605DF6016083C801B70128EECF
:1004700033E040E050E00E94EA03CA01B9012AE0FB
:1004800030E040E050E00E94EA03605DF6016183E5
:10049000C801B70124E630E040E050E00E94EA03E2
:1004A000CA01B9012AE030E040E050E00E94EA03CE
:1004B000605DF6016283C801B7012AE030E040E0E8
:1004C00050E00E94EA03CA01B9012AE030E040E0AE
:1004D00050E00E94EA03605DF6016383C801B70142
:1004E0002AE030E040E050E00E94EA03605DF6015F
:1004F00064831F910F91FF90EF90DF90CF9008954C
:100500000F931F93182F81E061E041E00E94A0004B
:1005100081E062E040E00E94A00081E063E041E011
:100520000E94A00080E0612F0E94C10181E063E091
:1005300040E00E94A00000E315E7C8010197F1F731
:1005400081E063E041E00E94A000C8010197F1F75B
:100550001F910F910895EF92FF920F931F93DF93D6
:10056000CF93CDB7DEB72A970FB6F894DEBF0FBE94
:10057000CDBF8C017B01FE0131968AE0DF011D9227
:100580008A95E9F780E20E948002FE0139960EC04A
:10059000C8016AE070E00E94D60391838083C8019D
:1005A0006AE070E00E94D6038B01329701151105B5
:1005B00079F7BFEFEB16BFEFFB0669F4FE0131964A
:1005C00020E030E002C02F5F3F4F81919191892B55
:1005D000D1F3890104C005E010E00E191F09C8011C
:1005E000880F991F7E010894E11CF11C09C0F701D6
:1005F0008081805D0E9480020F5F1F4F82E090E04B
:10060000E80EF91E0530110590F32A960FB6F894FE
:10061000DEBF0FBECDBFCF91DF911F910F91FF9035
:10062000EF900895EF92FF920F931F93CF93DF9374
:10063000062FEC0110E030E3E32E35E7F32E06C081
:100640000E948002C7010197F1F71F5F101718F48D
:1006500089918823A9F7DF91CF911F910F91FF9086
:10066000EF9008951F93182F81E061E040E00E9411
:10067000A00081E062E040E00E94A00081E063E031
:1006800041E00E94A00080E0612F0E94C10181E052
:1006900063E040E00E94A00080E395E70197F1F756
:1006A00081E063E041E00E94A0001F910895982F2F
:1006B0008150803170F4613019F0623051F405C01E
:1006C000892F81580E9432030895892F81540E94F6
:1006D0003203089581E00E94320382E00E943203D7
:1006E00008950F931F9381E060E041E00E9437017D
:1006F00081E061E041E00E94370181E062E041E099
:100700000E94370181E063E041E00E94370180E010
:100710006FEF0E94B00181E060E041E00E94A00024
:1007200084EF91E02CE231E0F9013197F1F7019784
:10073000D9F788E30E94320300E315E7C801019767
:10074000F1F78FE00E943203C8010197F1F781E0D1
:100750000E943203C8010197F1F786E00E9432033C
:1007600080E69AEE0197F1F71F910F91089582E0CC
:100770006FE00E94B00180E06FEF0E94B00181E065
:100780006FEF0E94B001089583E389B910BC86E839
:1007900080BD88E18AB908955D9BFECF8CB95E9BD0
:1007A000FECF08955F9BFECF8CB10895AA1BBB1BA3
:1007B00051E107C0AA1FBB1FA617B70710F0A61B61
:1007C000B70B881F991F5A95A9F780959095BC0182
:1007D000CD010895A1E21A2EAA1BBB1BFD010DC07D
:1007E000AA1FBB1FEE1FFF1FA217B307E407F507E1
:1007F00020F0A21BB30BE40BF50B661F771F881FBD
:10080000991F1A9469F760957095809590959B0152
:10081000AC01BD01CF010895A0E0B0E0E2E1F4E059
:100820000C94AE06FE01359661917191809198000D
:1008300090919900AF010E9421042096E2E00C946F
:10084000CA06ABE0B0E0E7E2F4E00C949E063C019F
:100850002B015A01FC0117821682838181FD03C09E
:100860006FEF7FEFC6C19AE0892E1E010894211C0C
:10087000311CF3012381F20123FD859123FF819136
:100880002F01882309F4B2C1853239F423FD859103
:1008900023FF81912F01853229F490E0B3010E945A
:1008A0001406E7CF982FFF24EE249924FFE1FF15CB
:1008B000D0F09B3269F09C3228F4903259F0933298
:1008C00091F40EC09D3249F0903369F441E024C0A8
:1008D00052E0F52A84E0F82A28C098E0F92A25C0D9
:1008E000E0E1FE2A22C0F7FC29C0892F80538A301C
:1008F00070F4F6FE05C0989C902C1124980E15C03B
:10090000E89CE02C1124E80EF0E2FF2A0EC09E3293
:1009100029F4F6FC6BC140E4F42A07C09C3619F4B4
:1009200050E8F52A02C0983649F4F20123FD95916A
:1009300023FF91912F01992309F0B8CF892F855476
:10094000833018F08052833038F444E050E0A40E35
:10095000B51E5FE359830FC0933631F0933779F0BA
:10096000933509F056C020C0F5018081898342E0AB
:1009700050E0A40EB51E610101E010E012C0F501C7
:10098000C080D180F6FC03C06FEF7FEF02C0692DFD
:1009900070E042E050E0A40EB51EC6010E940906B8
:1009A0008C015FE7F52214C0F501C080D180F6FC10
:1009B00003C06FEF7FEF02C0692D70E042E050E0AE
:1009C000A40EB51EC6010E94FE058C0150E8F52A52
:1009D000F3FE07C01AC080E290E0B3010E94140643
:1009E000EA948E2D90E008171907A8F30EC0F601BF
:1009F000F7FC8591F7FE81916F0190E0B3010E94B1
:100A00001406E110EA94015010400115110579F720
:100A1000EAC0943611F0993669F5F7FE08C0F50181
:100A2000208131814281538184E090E00AC0F50148
:100A3000808191819C01442737FD4095542F82E0AD
:100A400090E0A80EB91E9FE6F92257FF09C0509505
:100A50004095309521953F4F4F4F5F4FE0E8FE2A7C
:100A6000CA01B901A1012AE030E00E944006D82E57
:100A7000D21840C0953729F41F2D1F7E2AE030E0A0
:100A80001DC01F2D197F9F3661F0903720F49835D7
:100A900009F0ACC00FC0903739F0983709F0A6C004
:100AA00004C028E030E00AC0106114FD146020E1A9
:100AB00030E004C014FD166020E132E017FF08C0EA
:100AC000F501608171818281938144E050E008C02A
:100AD000F50180819181BC0180E090E042E050E02E
:100AE000A40EB51EA1010E944006D82ED2188FE791
:100AF000F82EF122F6FE0BC05EEFF522D91438F481
:100B0000F4FE07C0F2FC05C08FEEF82202C01D2DD6
:100B100001C0192DF4FE0DC0FE01ED0DF11D808107
:100B2000803319F499EEF92208C01F5FF2FE05C068
:100B300003C08F2D867809F01F5F0F2DF3FC14C0C2
:100B4000F0FE0FC01E1510F09D2C0BC09D2C9E0CAE
:100B5000911A1E2D06C080E290E0B3010E94140697
:100B60001F5F1E15C0F304C01E1510F4E11A01C06A
:100B7000EE2404FF0FC080E390E0B3010E9414064E
:100B800002FF1DC001FD03C088E790E00EC088E5AC
:100B900090E00BC0802F867891F001FF02C08BE2BD
:100BA00001C080E2F7FC8DE290E0B3010E941406E0
:100BB00006C080E390E0B3010E9414069A94D91411
:100BC000C0F3DA94F101ED0DF11D808190E0B301E5
:100BD0000E941406DD20A9F706C080E290E0B30170
:100BE0000E941406EA94EE20C1F743CEF301668119
:100BF0007781CB012B96E2E10C94BA06FC010590BB
:100C0000615070400110D8F7809590958E0F9F1F0E
:100C10000895FC016150704001900110D8F7809553
:100C200090958E0F9F1F08950F931F93CF93DF937F
:100C30008C01EB018B8181FF1BC082FF0DC02E81D7
:100C40003F818C819D812817390764F4E881F981FF
:100C50000193F983E88306C0E885F985802F09951B
:100C6000892B31F48E819F8101969F838E8302C0F0
:100C70000FEF1FEFC801DF91CF911F910F910895E2
:100C8000FA01AA27283051F1203181F1E8946F93BD
:100C90006E7F6E5F7F4F8F4F9F4FAF4FB1E03ED063
:100CA000B4E03CD0670F781F891F9A1FA11D680F01
:100CB000791F8A1F911DA11D6A0F711D811D911D34
:100CC000A11D20D009F468943F912AE0269F1124A9
:100CD0003019305D3193DEF6CF010895462F47700D
:100CE000405D4193B3E00FD0C9F7F6CF462F4F7068
:100CF000405D4A3318F0495D31FD4052419302D0C6
:100D0000A9F7EACFB4E0A69597958795779567956B
:100D1000BA95C9F700976105710508959B01AC016B
:100D20000A2E06945795479537952795BA95C9F792
:100D3000620F731F841F951FA01D08952F923F926D
:100D40004F925F926F927F928F929F92AF92BF92DB
:100D5000CF92DF92EF92FF920F931F93CF93DF9387
:100D6000CDB7DEB7CA1BDB0B0FB6F894DEBF0FBEE4
:100D7000CDBF09942A88398848885F846E847D8431
:100D80008C849B84AA84B984C884DF80EE80FD8033
:100D90000C811B81AA81B981CE0FD11D0FB6F894A9
:0E0DA000DEBF0FBECDBFED010895F894FFCF6A
:100DAE0054656D703D2564004C756D656E3D256412
:100DBE00007538446F6F725374617475733D25649A
:100DCE00000105090D02060A0E03070B0F04080C9D
:020DDE00100003
:00000001FF
